{
  "address": "0x994219370229E2bea7225557C0e418C0D044276D",
  "abi": [
    {
      "inputs": [
        {
          "internalType": "contract IzLend",
          "name": "_zLend",
          "type": "address"
        },
        {
          "internalType": "contract IERC20",
          "name": "daoToken",
          "type": "address"
        }
      ],
      "stateMutability": "nonpayable",
      "type": "constructor"
    },
    {
      "inputs": [],
      "name": "AlreadyVoted",
      "type": "error"
    },
    {
      "inputs": [],
      "name": "BorrowerNotAllowedToVote",
      "type": "error"
    },
    {
      "inputs": [],
      "name": "LoanAlreadyApproved",
      "type": "error"
    },
    {
      "inputs": [],
      "name": "LoanAlreadyFunded",
      "type": "error"
    },
    {
      "inputs": [],
      "name": "LoanRequestNotApproved",
      "type": "error"
    },
    {
      "inputs": [],
      "name": "NotaDAOMember",
      "type": "error"
    },
    {
      "inputs": [],
      "name": "VoteStillInProgress",
      "type": "error"
    },
    {
      "inputs": [],
      "name": "VotingPeriodEnded",
      "type": "error"
    },
    {
      "anonymous": false,
      "inputs": [
        {
          "indexed": false,
          "internalType": "uint256",
          "name": "requestId",
          "type": "uint256"
        }
      ],
      "name": "LoanApproved",
      "type": "event"
    },
    {
      "anonymous": false,
      "inputs": [
        {
          "indexed": true,
          "internalType": "uint256",
          "name": "loanId",
          "type": "uint256"
        },
        {
          "indexed": true,
          "internalType": "address",
          "name": "lender",
          "type": "address"
        },
        {
          "indexed": false,
          "internalType": "uint256",
          "name": "amount",
          "type": "uint256"
        }
      ],
      "name": "LoanFunded",
      "type": "event"
    },
    {
      "anonymous": false,
      "inputs": [
        {
          "indexed": false,
          "internalType": "uint256",
          "name": "requestId",
          "type": "uint256"
        }
      ],
      "name": "LoanRejected",
      "type": "event"
    },
    {
      "anonymous": false,
      "inputs": [
        {
          "indexed": true,
          "internalType": "uint256",
          "name": "loanId",
          "type": "uint256"
        },
        {
          "indexed": false,
          "internalType": "uint256",
          "name": "amount",
          "type": "uint256"
        },
        {
          "indexed": false,
          "internalType": "bool",
          "name": "loanLiquidated",
          "type": "bool"
        }
      ],
      "name": "LoanRepaid",
      "type": "event"
    },
    {
      "anonymous": false,
      "inputs": [
        {
          "indexed": true,
          "internalType": "uint256",
          "name": "loanId",
          "type": "uint256"
        },
        {
          "indexed": false,
          "internalType": "contract IERC20",
          "name": "currency",
          "type": "address"
        },
        {
          "indexed": true,
          "internalType": "address",
          "name": "borrower",
          "type": "address"
        },
        {
          "indexed": false,
          "internalType": "uint256",
          "name": "amount",
          "type": "uint256"
        },
        {
          "indexed": false,
          "internalType": "uint256",
          "name": "duration",
          "type": "uint256"
        },
        {
          "indexed": false,
          "internalType": "uint256",
          "name": "creditScore",
          "type": "uint256"
        }
      ],
      "name": "LoanRequested",
      "type": "event"
    },
    {
      "anonymous": false,
      "inputs": [
        {
          "indexed": true,
          "internalType": "address",
          "name": "previousOwner",
          "type": "address"
        },
        {
          "indexed": true,
          "internalType": "address",
          "name": "newOwner",
          "type": "address"
        }
      ],
      "name": "OwnershipTransferred",
      "type": "event"
    },
    {
      "anonymous": false,
      "inputs": [
        {
          "indexed": false,
          "internalType": "uint256",
          "name": "requestId",
          "type": "uint256"
        },
        {
          "indexed": true,
          "internalType": "address",
          "name": "voter",
          "type": "address"
        },
        {
          "indexed": false,
          "internalType": "bool",
          "name": "voteFor",
          "type": "bool"
        },
        {
          "indexed": false,
          "internalType": "uint256",
          "name": "votePower",
          "type": "uint256"
        }
      ],
      "name": "Voted",
      "type": "event"
    },
    {
      "inputs": [],
      "name": "DAO_TOKEN",
      "outputs": [
        {
          "internalType": "contract IERC20",
          "name": "",
          "type": "address"
        }
      ],
      "stateMutability": "view",
      "type": "function"
    },
    {
      "inputs": [],
      "name": "VOTE_DURATION",
      "outputs": [
        {
          "internalType": "uint256",
          "name": "",
          "type": "uint256"
        }
      ],
      "stateMutability": "view",
      "type": "function"
    },
    {
      "inputs": [
        {
          "internalType": "address",
          "name": "",
          "type": "address"
        },
        {
          "internalType": "uint256",
          "name": "",
          "type": "uint256"
        }
      ],
      "name": "borrowerLoans",
      "outputs": [
        {
          "internalType": "uint256",
          "name": "",
          "type": "uint256"
        }
      ],
      "stateMutability": "view",
      "type": "function"
    },
    {
      "inputs": [
        {
          "internalType": "uint256",
          "name": "requestId",
          "type": "uint256"
        }
      ],
      "name": "fundLoan",
      "outputs": [],
      "stateMutability": "nonpayable",
      "type": "function"
    },
    {
      "inputs": [
        {
          "internalType": "address",
          "name": "_borrower",
          "type": "address"
        }
      ],
      "name": "getBorrowerLoans",
      "outputs": [
        {
          "internalType": "uint256[]",
          "name": "",
          "type": "uint256[]"
        }
      ],
      "stateMutability": "view",
      "type": "function"
    },
    {
      "inputs": [
        {
          "internalType": "address",
          "name": "_lender",
          "type": "address"
        }
      ],
      "name": "getLenderLoans",
      "outputs": [
        {
          "internalType": "uint256[]",
          "name": "",
          "type": "uint256[]"
        }
      ],
      "stateMutability": "view",
      "type": "function"
    },
    {
      "inputs": [
        {
          "internalType": "uint256",
          "name": "start",
          "type": "uint256"
        },
        {
          "internalType": "uint256",
          "name": "size",
          "type": "uint256"
        }
      ],
      "name": "getLoanRequests",
      "outputs": [
        {
          "components": [
            {
              "internalType": "uint256",
              "name": "id",
              "type": "uint256"
            },
            {
              "internalType": "address",
              "name": "borrower",
              "type": "address"
            },
            {
              "internalType": "contract IERC20",
              "name": "currency",
              "type": "address"
            },
            {
              "internalType": "uint256",
              "name": "amount",
              "type": "uint256"
            },
            {
              "internalType": "uint256",
              "name": "duration",
              "type": "uint256"
            },
            {
              "internalType": "string",
              "name": "loanReason",
              "type": "string"
            },
            {
              "internalType": "uint256",
              "name": "totalDueBack",
              "type": "uint256"
            },
            {
              "internalType": "uint256",
              "name": "amountFunded",
              "type": "uint256"
            },
            {
              "internalType": "uint256",
              "name": "amountRepaid",
              "type": "uint256"
            },
            {
              "internalType": "uint256",
              "name": "creditScore",
              "type": "uint256"
            },
            {
              "internalType": "uint256",
              "name": "interestRate",
              "type": "uint256"
            },
            {
              "internalType": "uint256",
              "name": "votesFor",
              "type": "uint256"
            },
            {
              "internalType": "uint256",
              "name": "votesAgainst",
              "type": "uint256"
            },
            {
              "internalType": "bool",
              "name": "isApproved",
              "type": "bool"
            },
            {
              "internalType": "uint256",
              "name": "voteDeadline",
              "type": "uint256"
            },
            {
              "internalType": "bool",
              "name": "voteApprovalTreated",
              "type": "bool"
            },
            {
              "internalType": "bool",
              "name": "isFunded",
              "type": "bool"
            },
            {
              "internalType": "bool",
              "name": "isRepaid",
              "type": "bool"
            },
            {
              "internalType": "address",
              "name": "lender",
              "type": "address"
            }
          ],
          "internalType": "struct zLendMicroLoan.LoanRequest[]",
          "name": "requests",
          "type": "tuple[]"
        }
      ],
      "stateMutability": "view",
      "type": "function"
    },
    {
      "inputs": [
        {
          "internalType": "address",
          "name": "voter",
          "type": "address"
        }
      ],
      "name": "getVotingPower",
      "outputs": [
        {
          "internalType": "uint256",
          "name": "",
          "type": "uint256"
        }
      ],
      "stateMutability": "view",
      "type": "function"
    },
    {
      "inputs": [
        {
          "internalType": "address",
          "name": "",
          "type": "address"
        },
        {
          "internalType": "uint256",
          "name": "",
          "type": "uint256"
        }
      ],
      "name": "lenderFundedLoans",
      "outputs": [
        {
          "internalType": "uint256",
          "name": "",
          "type": "uint256"
        }
      ],
      "stateMutability": "view",
      "type": "function"
    },
    {
      "inputs": [],
      "name": "loanRequestCounter",
      "outputs": [
        {
          "internalType": "uint256",
          "name": "",
          "type": "uint256"
        }
      ],
      "stateMutability": "view",
      "type": "function"
    },
    {
      "inputs": [
        {
          "internalType": "uint256",
          "name": "",
          "type": "uint256"
        }
      ],
      "name": "loanRequests",
      "outputs": [
        {
          "internalType": "uint256",
          "name": "id",
          "type": "uint256"
        },
        {
          "internalType": "address",
          "name": "borrower",
          "type": "address"
        },
        {
          "internalType": "contract IERC20",
          "name": "currency",
          "type": "address"
        },
        {
          "internalType": "uint256",
          "name": "amount",
          "type": "uint256"
        },
        {
          "internalType": "uint256",
          "name": "duration",
          "type": "uint256"
        },
        {
          "internalType": "string",
          "name": "loanReason",
          "type": "string"
        },
        {
          "internalType": "uint256",
          "name": "totalDueBack",
          "type": "uint256"
        },
        {
          "internalType": "uint256",
          "name": "amountFunded",
          "type": "uint256"
        },
        {
          "internalType": "uint256",
          "name": "amountRepaid",
          "type": "uint256"
        },
        {
          "internalType": "uint256",
          "name": "creditScore",
          "type": "uint256"
        },
        {
          "internalType": "uint256",
          "name": "interestRate",
          "type": "uint256"
        },
        {
          "internalType": "uint256",
          "name": "votesFor",
          "type": "uint256"
        },
        {
          "internalType": "uint256",
          "name": "votesAgainst",
          "type": "uint256"
        },
        {
          "internalType": "bool",
          "name": "isApproved",
          "type": "bool"
        },
        {
          "internalType": "uint256",
          "name": "voteDeadline",
          "type": "uint256"
        },
        {
          "internalType": "bool",
          "name": "voteApprovalTreated",
          "type": "bool"
        },
        {
          "internalType": "bool",
          "name": "isFunded",
          "type": "bool"
        },
        {
          "internalType": "bool",
          "name": "isRepaid",
          "type": "bool"
        },
        {
          "internalType": "address",
          "name": "lender",
          "type": "address"
        }
      ],
      "stateMutability": "view",
      "type": "function"
    },
    {
      "inputs": [],
      "name": "owner",
      "outputs": [
        {
          "internalType": "address",
          "name": "",
          "type": "address"
        }
      ],
      "stateMutability": "view",
      "type": "function"
    },
    {
      "inputs": [],
      "name": "renounceOwnership",
      "outputs": [],
      "stateMutability": "nonpayable",
      "type": "function"
    },
    {
      "inputs": [
        {
          "internalType": "uint256",
          "name": "_loanId",
          "type": "uint256"
        },
        {
          "internalType": "uint256",
          "name": "_amount",
          "type": "uint256"
        }
      ],
      "name": "repayLoan",
      "outputs": [],
      "stateMutability": "nonpayable",
      "type": "function"
    },
    {
      "inputs": [
        {
          "internalType": "contract IERC20",
          "name": "currency",
          "type": "address"
        },
        {
          "internalType": "uint256",
          "name": "_amount",
          "type": "uint256"
        },
        {
          "internalType": "uint256",
          "name": "duration",
          "type": "uint256"
        },
        {
          "internalType": "string",
          "name": "loanReason",
          "type": "string"
        }
      ],
      "name": "requestLoan",
      "outputs": [],
      "stateMutability": "nonpayable",
      "type": "function"
    },
    {
      "inputs": [
        {
          "internalType": "uint256",
          "name": "newDuration",
          "type": "uint256"
        }
      ],
      "name": "setVoteDuration",
      "outputs": [],
      "stateMutability": "nonpayable",
      "type": "function"
    },
    {
      "inputs": [
        {
          "internalType": "address",
          "name": "newOwner",
          "type": "address"
        }
      ],
      "name": "transferOwnership",
      "outputs": [],
      "stateMutability": "nonpayable",
      "type": "function"
    },
    {
      "inputs": [
        {
          "internalType": "uint256",
          "name": "requestId",
          "type": "uint256"
        },
        {
          "internalType": "bool",
          "name": "voteFor",
          "type": "bool"
        }
      ],
      "name": "voteOnLoanRequest",
      "outputs": [],
      "stateMutability": "nonpayable",
      "type": "function"
    },
    {
      "inputs": [
        {
          "internalType": "uint256",
          "name": "",
          "type": "uint256"
        },
        {
          "internalType": "address",
          "name": "",
          "type": "address"
        }
      ],
      "name": "voted",
      "outputs": [
        {
          "internalType": "bool",
          "name": "",
          "type": "bool"
        }
      ],
      "stateMutability": "view",
      "type": "function"
    }
  ],
  "transactionHash": "0x5b8da534d81f339f6c3ccb20d11e6d2958f62b58e2e56c2558f8e99d61bbea6d",
  "args": [
    "0xd59Cfb0bb55eAfBe03cdBbeC151868E07daBEBb5",
    "0xc3a3d92f8e22EEbCbC1317166734C4F3F93C67A8"
  ],
  "numDeployments": 2,
  "solcInputHash": "b64cf79c217641d3884ca4d613dfd52c",
  "bytecode": "0x6080346100e357601f611d5738819003918201601f19168301916001600160401b038311848410176100e85780849260409485528339810103126100e35780516001600160a01b03811691908290036100e357602001516001600160a01b038116908190036100e35760008054336001600160a01b0319821681178355604051949290916001600160a01b0316907f8be0079c531659141344cd1fd0a4f28419497f9722a3daafe3b4186f6b6457e09080a361025860075560018060a01b0319600654161760065560018060a01b03196008541617600855611c5890816100ff8239f35b600080fd5b634e487b7160e01b600052604160045260246000fdfe60a080604052600436101561001357600080fd5b60003560e01c9081630b8d34d114611703575080632b5827a9146116da5780634654ff05146116bc5780635277b4ae1461166457806356ac88db1461127d57806359583eb514611233578063715018a6146111da578063846b909a14610f8057806389c723cb14610da35780638a700b5314610bde5780638da5cb5b14610bb55780639449a65514610b94578063bb4d443614610b69578063d1b332f4146109f9578063e3ed1902146109a0578063eee8b7ff14610929578063eeeb0c17146108a2578063f2fde38b146107db5763f504f908146100f057600080fd5b346107d65760803660031901126107d6576004356001600160a01b038116908190036107d6576024359060443560643567ffffffffffffffff81116107d657366023820112156107d657806004013561014881611917565b916101566040519384611817565b81835236602483830101116107d65781600092602460209301838601378301015260065460405163908e3b3760e01b8152600481018590526001600160a01b039091169290600081602481875afa9081156106b6576000916106c2575b5060600151918583029383850487148415171561058757602060646024960491604051968780926372bac89360e01b82523360048301525afa9485156106b65760009561067f575b5060609360008060405161020f8882611817565b602181527f5374617274696e672072657175657374206c6f616e20332e20256420256420256020820152601960fa1b604082015260405161028e818d61026e602083019563a7a8785360e01b87526080602485015260a484019061176d565b90896044840152886064840152608483015203601f198101835282611817565b51906a636f6e736f6c652e6c6f675afa506102ac886001549361194b565b906102b96007544261194b565b91604051946102c7866117fa565b8486523360208701528960408701528a8887015286608087015260a086015260c0850152600060e08501526000610100850152866101208501526101408401526000610160840152600061018084015260006101a08401526101c083015260006101e0830152600061020083015260006102208301526000610240830152600052600260205260406000208151815560018060a01b03602083015116600182019060018060a01b03166bffffffffffffffffffffffff60a01b82541617905560018060a01b03604083015116600282019060018060a01b03166bffffffffffffffffffffffff60a01b8254161790558382015160038201556080820151600482015560a082015180519067ffffffffffffffff8211610669576103ed60058401546117c0565b601f811161061e575b50602090601f83116001146105a857918061051b959492600f9460009261059d575b50508160011b916000199060031b1c19161760058201555b60c0830151600682015560e0830151600782015561010083015160088201556101208301516009820155610140830151600a820155610160830151600b820155610180830151600c82015561049b6101a08401511515600d83019060ff801983541691151516179055565b6101c0830151600e82015501906104c56101e08201511515839060ff801983541691151516179055565b610200810151825461022083015161024090930151610100600160b81b031990911691151560081b61ff00169190911791151560101b62ff0000169190911760189190911b6301000000600160b81b0316179055565b33600052600360205261053560406000206001549061196c565b6001549460405194855260208501526040840152820152817fbb85c5f43fc824cf36ef1a43ea8f6ddecf3e3363e6dc59b3761a628de2da477760803393a3600019811461058757600101600155600080f35b634e487b7160e01b600052601160045260246000fd5b015190503880610418565b9060058401600052806000209160005b601f198516811061060657509261051b959492600192600f9583601f198116106105ed575b505050811b016005820155610430565b015160001960f88460031b161c191690553880806105dd565b919260206001819286850151815501940192016105b8565b600584016000526020600020601f840160051c8101916020851061065f575b601f0160051c01905b81811061065357506103f6565b60008155600101610646565b909150819061063d565b634e487b7160e01b600052604160045260246000fd5b90946020823d6020116106ae575b8161069a60209383611817565b810103126106ab57505193386101fb565b80fd5b3d915061068d565b6040513d6000823e3d90fd5b3d8083833e6106d18183611817565b8101906020818303126107ba5780519067ffffffffffffffff82116107d257019160a0838303126106ab576040519260a0840184811067ffffffffffffffff8211176107be5760405280516001600160a01b03811681036107ba57845260208101516020850152604081015160408501526060810151606085015260808101519067ffffffffffffffff82116107ba570182601f820112156107b65780519161077983611917565b936107876040519586611817565b838552602084840101116106ab575082916107ab916020806060979601910161174a565b6080820152906101b3565b5080fd5b8280fd5b634e487b7160e01b83526041600452602483fd5b8380fd5b600080fd5b346107d65760203660031901126107d6576107f461171e565b6107fc611a2b565b6001600160a01b0316801561084e57600080546001600160a01b03198116831782556001600160a01b0316907f8be0079c531659141344cd1fd0a4f28419497f9722a3daafe3b4186f6b6457e09080a3005b60405162461bcd60e51b815260206004820152602660248201527f4f776e61626c653a206e6577206f776e657220697320746865207a65726f206160448201526564647265737360d01b6064820152608490fd5b346107d65760203660031901126107d6576001600160a01b036108c361171e565b166000526004602052604060002060405190816020825491828152019160005260206000209060005b8181106109135761090f8561090381870382611817565b604051918291826118dd565b0390f35b82548452602090930192600192830192016108ec565b346107d65760203660031901126107d6576001600160a01b0361094a61171e565b166000526003602052604060002060405190816020825491828152019160005260206000209060005b81811061098a5761090f8561090381870382611817565b8254845260209093019260019283019201610973565b346107d65760403660031901126107d6576109b961171e565b6001600160a01b03166000908152600360205260409020805460243591908210156107d6576020916109ea91611792565b90549060031b1c604051908152f35b346107d65760203660031901126107d65760048035600090815260026020819052604090912080546001820154928201546003830154948301549491936001600160a01b0390811692911690610a5160058501611839565b956006850154966007860154600887015490600988015492600a89015494600b8a015496600c8b015498600d8c015460ff169a600e8d01549c600f01549d604051608052608051526080516020015260805160400152608051606001526080516080015260805160a001610260905260805161026001610ad09161176d565b9960805160c0015260805160e001526080516101000152608051610120015260805161014001526080516101600152608051610180015215156080516101a001526080516101c0015260ff811615156080516101e001528060081c60ff16151560805161020001528060101c60ff1615156080516102200152600160a01b600190039060181c1660805161024001526080519003608051f35b346107d65760203660031901126107d6576020610b8c610b8761171e565b6119a6565b604051908152f35b346107d65760203660031901126107d657610bad611a2b565b600435600755005b346107d65760003660031901126107d6576000546040516001600160a01b039091168152602090f35b346107d657610bec36611734565b600082815260026020526040902060018101549091906001600160a01b03163303610d5e57600f82019081549260ff8460081c1615610d275760ff8460101c16610cec577f1ccc425b724aaebfa2ad6a4a3b5edcd098c0e29a314a8ef6d17c912007dd5c1d93610cc760409460018060a01b036002850154169060088501936006610c7888875461194b565b96878755019586541115610cd9575b5054865163a9059cbb60e01b602082015260189190911c6001600160a01b031660248201526044808201879052815290610cc2606483611817565b611a83565b549054111582519182526020820152a2005b62ff000019166201000017815589610c87565b60405162461bcd60e51b8152602060048201526013602482015272131bd85b88185b1c9958591e481c995c185a59606a1b6044820152606490fd5b60405162461bcd60e51b815260206004820152600f60248201526e131bd85b881b9bdd08199d5b991959608a1b6044820152606490fd5b60405162461bcd60e51b815260206004820152601760248201527f4f6e6c7920626f72726f7765722063616e2072657061790000000000000000006044820152606490fd5b346107d65760403660031901126107d6576004356024358015158082036107d6576008546040516370a0823160e01b815233600482015290602090829060249082906001600160a01b03165afa9081156106b657600091610f4e575b5015610f3d578260005260026020526040600020600e8101544211610f2c5760ff600d82015416610f1b57600084815260056020908152604080832033845290915290205460ff16610f0a5760018101546001600160a01b03163314610ef957610e68336119a6565b9215610ee457600b01610e7c83825461194b565b90555b826000526005602052604060002060018060a01b0333166000526020526040600020600160ff19825416179055604051928352602083015260408201527f7c2de587c00d75474a0c6c6fa96fd3b45dc974cd4e8a75f712bb84c950dce1b560603392a2005b600c01610ef283825461194b565b9055610e7f565b63e2eb2f9760e01b60005260046000fd5b637c9a1cf960e01b60005260046000fd5b633811f14360e01b60005260046000fd5b63370ec37160e21b60005260046000fd5b6311783ba360e31b60005260046000fd5b90506020813d602011610f78575b81610f6960209383611817565b810103126107d6575184610dff565b3d9150610f5c565b346107d65760203660031901126107d6576004356024602060018060a01b0360085416604051928380926370a0823160e01b82523360048301525afa9081156106b6576000916111a8575b5015610f3d578060005260026020526040600020600f810190815460ff8160081c166111975760ff16156110e2575b60ff600d82015416156110d157600381018054600783015582546301000000600160b81b0319163360181b6301000000600160b81b0316178355916110a1919061010061ff001982541617905533600052600460205261105e84604060002061196c565b6002015482546040516323b872dd60e01b6020820152336024820152306044820152606480820192909252908152906001600160a01b0316610cc2608483611817565b54906040519182527fbd7ef6c6281278f6c8ac4ae9ef2f205b52425813c288dd47c377cb6b59c5076e60203393a3005b63408a85f960e01b60005260046000fd5b600e8101544211156111865760ff600b820154600c83015410611115600d840191829060ff801983541691151516179055565b541615611157577f073e754af3e7d644af8000094f3c23bc20ef9c40cc057bffa060b0230adf00f46020604051858152a15b815460ff19166001178255610ffa565b7f86466d37eece1364ab0023202e5a1d9d14dd6bb5c9904bf0bf361b062329b78e6020604051858152a1611147565b63f703cc6f60e01b60005260046000fd5b632dc8459960e01b60005260046000fd5b90506020813d6020116111d2575b816111c360209383611817565b810103126107d6575182610fcb565b3d91506111b6565b346107d65760003660031901126107d6576111f3611a2b565b600080546001600160a01b0319811682556001600160a01b03167f8be0079c531659141344cd1fd0a4f28419497f9722a3daafe3b4186f6b6457e08280a3005b346107d65760403660031901126107d65761124c61171e565b6001600160a01b03166000908152600460205260409020805460243591908210156107d6576020916109ea91611792565b346107d65761128b36611734565b9061129582611933565b906112a36040519283611817565b828252601f196112b284611933565b0160005b8181106115bd5750506112c9838261194b565b60001981019081116105875792600154935b82811015611442575b50505090506040518091602082016020835281518091526040830190602060408260051b8601019301916000905b82821061132157505050500390f35b919360019193955060208091603f1989820301855287519081518152848060a01b03838301511683820152848060a01b036040830151166040820152606082015160608201526080820151608082015261024061138f60a084015161026060a085015261026084019061176d565b9260c081015160c084015260e081015160e08401526101008101516101008401526101208101516101208401526101408101516101408401526101608101516101608401526101808101516101808401526101a081015115156101a08401526101c08101516101c08401526101e081015115156101e08401526102008101511515610200840152610220810151151561022084015281878060a01b03910151169101529601920192018594939192611312565b84811180156115b5575b6115b0578060005260026020526040600020611468838561194b565b60001981019080821161058757839003600019019081116105875761159491600f60405191611496836117fa565b8054835260018101546001600160a01b039081166020850152600282015416604084015260038101546060840152600481015460808401526114da60058201611839565b60a0840152600681015460c0840152600781015460e084015260088101546101008401526009810154610120840152600a810154610140840152600b810154610160840152600c81015461018084015260ff600d8201541615156101a0840152600e8101546101c0840152015460ff811615156101e083015260ff8160081c16151561020083015260ff8160101c16151561022083015260018060a01b039060181c1661024082015261158d8288611958565b5285611958565b5080156115ab575b801561058757600019016112db565b6112e4565b61159c565b50841561144c565b6020906040516115cc816117fa565b60008152600083820152600060408201526000606082015260006080820152606060a0820152600060c0820152600060e08201526000610100820152600061012082015260006101408201526000610160820152600061018082015260006101a082015260006101c082015260006101e0820152600061020082015260006102208201526000610240820152828287010152016112b6565b346107d65760403660031901126107d6576024356001600160a01b03811681036107d657600435600052600560205260406000209060018060a01b0316600052602052602060ff604060002054166040519015158152f35b346107d65760003660031901126107d6576020600754604051908152f35b346107d65760003660031901126107d6576008546040516001600160a01b039091168152602090f35b346107d65760003660031901126107d6576020906001548152f35b600435906001600160a01b03821682036107d657565b60409060031901126107d6576004359060243590565b60005b83811061175d5750506000910152565b818101518382015260200161174d565b906020916117868151809281855285808601910161174a565b601f01601f1916010190565b80548210156117aa5760005260206000200190600090565b634e487b7160e01b600052603260045260246000fd5b90600182811c921680156117f0575b60208310146117da57565b634e487b7160e01b600052602260045260246000fd5b91607f16916117cf565b610260810190811067ffffffffffffffff82111761066957604052565b90601f8019910116810190811067ffffffffffffffff82111761066957604052565b906040519182600082549261184d846117c0565b80845293600181169081156118bb5750600114611874575b5061187292500383611817565b565b90506000929192526020600020906000915b81831061189f5750509060206118729282010138611865565b6020919350806001915483858901015201910190918492611886565b90506020925061187294915060ff191682840152151560051b82010138611865565b602060408183019282815284518094520192019060005b8181106119015750505090565b82518452602093840193909201916001016118f4565b67ffffffffffffffff811161066957601f01601f191660200190565b67ffffffffffffffff81116106695760051b60200190565b9190820180921161058757565b80518210156117aa5760209160051b010190565b8054680100000000000000008110156106695761198e91600182018155611792565b819291549060031b91821b91600019901b1916179055565b6008546040516370a0823160e01b81526001600160a01b0392831660048201529160209183916024918391165afa80156106b6576000906119f1575b670de0b6b3a764000091500490565b506020813d602011611a23575b81611a0b60209383611817565b810103126107d657670de0b6b3a764000090516119e2565b3d91506119fe565b6000546001600160a01b03163303611a3f57565b606460405162461bcd60e51b815260206004820152602060248201527f4f776e61626c653a2063616c6c6572206973206e6f7420746865206f776e65726044820152fd5b60408051909290916001600160a01b0316611a9e8484611817565b602083527f5361666545524332303a206c6f772d6c6576656c2063616c6c206661696c65646020840152803b15611b9a576000828192826020611b0f9796519301915af13d15611b92573d90611af382611917565b91611b0086519384611817565b82523d6000602084013e611bde565b805180611b1b57505050565b81602091810103126107d657602001518015908115036107d657611b3c5750565b5162461bcd60e51b815260206004820152602a60248201527f5361666545524332303a204552433230206f7065726174696f6e20646964206e6044820152691bdd081cdd58d8d9595960b21b6064820152608490fd5b606090611bde565b835162461bcd60e51b815260206004820152601d60248201527f416464726573733a2063616c6c20746f206e6f6e2d636f6e74726163740000006044820152606490fd5b90919015611bea575090565b815115611bfa5750805190602001fd5b60405162461bcd60e51b815260206004820152908190611c1e90602483019061176d565b0390fdfea264697066735822122021b66067fb5175b9c437e4c6cc81215c2449790e07e38d26efa061e5a008eead64736f6c634300081b0033",
  "devdoc": {
    "kind": "dev",
    "methods": {
      "owner()": {
        "details": "Returns the address of the current owner."
      },
      "renounceOwnership()": {
        "details": "Leaves the contract without owner. It will not be possible to call `onlyOwner` functions anymore. Can only be called by the current owner. NOTE: Renouncing ownership will leave the contract without an owner, thereby removing any functionality that is only available to the owner."
      },
      "transferOwnership(address)": {
        "details": "Transfers ownership of the contract to a new account (`newOwner`). Can only be called by the current owner."
      }
    },
    "version": 1
  },
  "userdoc": {
    "kind": "user",
    "methods": {},
    "version": 1
  },
  "storageLayout": {
    "storage": [
      {
        "astId": 53,
        "contract": "contracts/zLendMicroLoan.sol:zLendMicroLoan",
        "label": "_owner",
        "offset": 0,
        "slot": "0",
        "type": "t_address"
      },
      {
        "astId": 5682,
        "contract": "contracts/zLendMicroLoan.sol:zLendMicroLoan",
        "label": "loanRequestCounter",
        "offset": 0,
        "slot": "1",
        "type": "t_uint256"
      },
      {
        "astId": 5687,
        "contract": "contracts/zLendMicroLoan.sol:zLendMicroLoan",
        "label": "loanRequests",
        "offset": 0,
        "slot": "2",
        "type": "t_mapping(t_uint256,t_struct(LoanRequest)5680_storage)"
      },
      {
        "astId": 5692,
        "contract": "contracts/zLendMicroLoan.sol:zLendMicroLoan",
        "label": "borrowerLoans",
        "offset": 0,
        "slot": "3",
        "type": "t_mapping(t_address,t_array(t_uint256)dyn_storage)"
      },
      {
        "astId": 5697,
        "contract": "contracts/zLendMicroLoan.sol:zLendMicroLoan",
        "label": "lenderFundedLoans",
        "offset": 0,
        "slot": "4",
        "type": "t_mapping(t_address,t_array(t_uint256)dyn_storage)"
      },
      {
        "astId": 5703,
        "contract": "contracts/zLendMicroLoan.sol:zLendMicroLoan",
        "label": "voted",
        "offset": 0,
        "slot": "5",
        "type": "t_mapping(t_uint256,t_mapping(t_address,t_bool))"
      },
      {
        "astId": 5755,
        "contract": "contracts/zLendMicroLoan.sol:zLendMicroLoan",
        "label": "zLend",
        "offset": 0,
        "slot": "6",
        "type": "t_contract(IzLend)3750"
      },
      {
        "astId": 5758,
        "contract": "contracts/zLendMicroLoan.sol:zLendMicroLoan",
        "label": "VOTE_DURATION",
        "offset": 0,
        "slot": "7",
        "type": "t_uint256"
      },
      {
        "astId": 5761,
        "contract": "contracts/zLendMicroLoan.sol:zLendMicroLoan",
        "label": "DAO_TOKEN",
        "offset": 0,
        "slot": "8",
        "type": "t_contract(IERC20)276"
      }
    ],
    "types": {
      "t_address": {
        "encoding": "inplace",
        "label": "address",
        "numberOfBytes": "20"
      },
      "t_array(t_uint256)dyn_storage": {
        "base": "t_uint256",
        "encoding": "dynamic_array",
        "label": "uint256[]",
        "numberOfBytes": "32"
      },
      "t_bool": {
        "encoding": "inplace",
        "label": "bool",
        "numberOfBytes": "1"
      },
      "t_contract(IERC20)276": {
        "encoding": "inplace",
        "label": "contract IERC20",
        "numberOfBytes": "20"
      },
      "t_contract(IzLend)3750": {
        "encoding": "inplace",
        "label": "contract IzLend",
        "numberOfBytes": "20"
      },
      "t_mapping(t_address,t_array(t_uint256)dyn_storage)": {
        "encoding": "mapping",
        "key": "t_address",
        "label": "mapping(address => uint256[])",
        "numberOfBytes": "32",
        "value": "t_array(t_uint256)dyn_storage"
      },
      "t_mapping(t_address,t_bool)": {
        "encoding": "mapping",
        "key": "t_address",
        "label": "mapping(address => bool)",
        "numberOfBytes": "32",
        "value": "t_bool"
      },
      "t_mapping(t_uint256,t_mapping(t_address,t_bool))": {
        "encoding": "mapping",
        "key": "t_uint256",
        "label": "mapping(uint256 => mapping(address => bool))",
        "numberOfBytes": "32",
        "value": "t_mapping(t_address,t_bool)"
      },
      "t_mapping(t_uint256,t_struct(LoanRequest)5680_storage)": {
        "encoding": "mapping",
        "key": "t_uint256",
        "label": "mapping(uint256 => struct zLendMicroLoan.LoanRequest)",
        "numberOfBytes": "32",
        "value": "t_struct(LoanRequest)5680_storage"
      },
      "t_string_storage": {
        "encoding": "bytes",
        "label": "string",
        "numberOfBytes": "32"
      },
      "t_struct(LoanRequest)5680_storage": {
        "encoding": "inplace",
        "label": "struct zLendMicroLoan.LoanRequest",
        "members": [
          {
            "astId": 5642,
            "contract": "contracts/zLendMicroLoan.sol:zLendMicroLoan",
            "label": "id",
            "offset": 0,
            "slot": "0",
            "type": "t_uint256"
          },
          {
            "astId": 5644,
            "contract": "contracts/zLendMicroLoan.sol:zLendMicroLoan",
            "label": "borrower",
            "offset": 0,
            "slot": "1",
            "type": "t_address"
          },
          {
            "astId": 5647,
            "contract": "contracts/zLendMicroLoan.sol:zLendMicroLoan",
            "label": "currency",
            "offset": 0,
            "slot": "2",
            "type": "t_contract(IERC20)276"
          },
          {
            "astId": 5649,
            "contract": "contracts/zLendMicroLoan.sol:zLendMicroLoan",
            "label": "amount",
            "offset": 0,
            "slot": "3",
            "type": "t_uint256"
          },
          {
            "astId": 5651,
            "contract": "contracts/zLendMicroLoan.sol:zLendMicroLoan",
            "label": "duration",
            "offset": 0,
            "slot": "4",
            "type": "t_uint256"
          },
          {
            "astId": 5653,
            "contract": "contracts/zLendMicroLoan.sol:zLendMicroLoan",
            "label": "loanReason",
            "offset": 0,
            "slot": "5",
            "type": "t_string_storage"
          },
          {
            "astId": 5655,
            "contract": "contracts/zLendMicroLoan.sol:zLendMicroLoan",
            "label": "totalDueBack",
            "offset": 0,
            "slot": "6",
            "type": "t_uint256"
          },
          {
            "astId": 5657,
            "contract": "contracts/zLendMicroLoan.sol:zLendMicroLoan",
            "label": "amountFunded",
            "offset": 0,
            "slot": "7",
            "type": "t_uint256"
          },
          {
            "astId": 5659,
            "contract": "contracts/zLendMicroLoan.sol:zLendMicroLoan",
            "label": "amountRepaid",
            "offset": 0,
            "slot": "8",
            "type": "t_uint256"
          },
          {
            "astId": 5661,
            "contract": "contracts/zLendMicroLoan.sol:zLendMicroLoan",
            "label": "creditScore",
            "offset": 0,
            "slot": "9",
            "type": "t_uint256"
          },
          {
            "astId": 5663,
            "contract": "contracts/zLendMicroLoan.sol:zLendMicroLoan",
            "label": "interestRate",
            "offset": 0,
            "slot": "10",
            "type": "t_uint256"
          },
          {
            "astId": 5665,
            "contract": "contracts/zLendMicroLoan.sol:zLendMicroLoan",
            "label": "votesFor",
            "offset": 0,
            "slot": "11",
            "type": "t_uint256"
          },
          {
            "astId": 5667,
            "contract": "contracts/zLendMicroLoan.sol:zLendMicroLoan",
            "label": "votesAgainst",
            "offset": 0,
            "slot": "12",
            "type": "t_uint256"
          },
          {
            "astId": 5669,
            "contract": "contracts/zLendMicroLoan.sol:zLendMicroLoan",
            "label": "isApproved",
            "offset": 0,
            "slot": "13",
            "type": "t_bool"
          },
          {
            "astId": 5671,
            "contract": "contracts/zLendMicroLoan.sol:zLendMicroLoan",
            "label": "voteDeadline",
            "offset": 0,
            "slot": "14",
            "type": "t_uint256"
          },
          {
            "astId": 5673,
            "contract": "contracts/zLendMicroLoan.sol:zLendMicroLoan",
            "label": "voteApprovalTreated",
            "offset": 0,
            "slot": "15",
            "type": "t_bool"
          },
          {
            "astId": 5675,
            "contract": "contracts/zLendMicroLoan.sol:zLendMicroLoan",
            "label": "isFunded",
            "offset": 1,
            "slot": "15",
            "type": "t_bool"
          },
          {
            "astId": 5677,
            "contract": "contracts/zLendMicroLoan.sol:zLendMicroLoan",
            "label": "isRepaid",
            "offset": 2,
            "slot": "15",
            "type": "t_bool"
          },
          {
            "astId": 5679,
            "contract": "contracts/zLendMicroLoan.sol:zLendMicroLoan",
            "label": "lender",
            "offset": 3,
            "slot": "15",
            "type": "t_address"
          }
        ],
        "numberOfBytes": "512"
      },
      "t_uint256": {
        "encoding": "inplace",
        "label": "uint256",
        "numberOfBytes": "32"
      }
    }
  }
}