{
  "address": "0x5FbDB2315678afecb367f032d93F642f64180aa3",
  "abi": [
    {
      "inputs": [],
      "stateMutability": "nonpayable",
      "type": "constructor"
    },
    {
      "anonymous": false,
      "inputs": [
        {
          "indexed": false,
          "internalType": "address",
          "name": "withdrawer",
          "type": "address"
        },
        {
          "indexed": false,
          "internalType": "uint256",
          "name": "amount",
          "type": "uint256"
        }
      ],
      "name": "Withdrawn",
      "type": "event"
    },
    {
      "inputs": [
        {
          "internalType": "contract IERC20",
          "name": "currency",
          "type": "address"
        },
        {
          "internalType": "uint256",
          "name": "amount",
          "type": "uint256"
        }
      ],
      "name": "withdraw",
      "outputs": [],
      "stateMutability": "nonpayable",
      "type": "function"
    }
  ],
  "transactionHash": "0x4e65c61e7308d8b3d5ac4bf3cc1ed1b2ab1a16a00a5e622f7cbf5b3c0d3ad597",
  "args": [],
  "numDeployments": 1,
  "solcInputHash": "6babea74955d80334764346762de4648",
  "bytecode": "0x6080806040523460225768056bc75e2d631000006000556103b990816100288239f35b600080fdfe6080604052600436101561001257600080fd5b60003560e01c63f3fef3a31461002757600080fd5b34610227576040366003190112610227576004356001600160a01b038116908190036102275760243590336000526001602052604060002060018060a01b03821660005260205261007d826040600020546102c7565b6000541061029257336000526001602052604060002060018060a01b03821660005260205260406000206100b28382546102c7565b905560405163a9059cbb60e01b6020820190815233602483015260448083018590528252916100e26064836102ea565b6040928351926100f285856102ea565b602084527f5361666545524332303a206c6f772d6c6576656c2063616c6c206661696c65646020850152823b1561024e575160009283929083905af1903d15610242573d67ffffffffffffffff811161022c578351610170939091610161601f8201601f1916602001846102ea565b82523d6000602084013e61030c565b8051806101ac575b8251338152602081018590527f7084f5476618d8e60b11ef0d7d3f06914655adb8793e28ff7f018d4c76d505d590604090a1005b81602091810103126102275760200151801590811503610227576101d1573880610178565b5162461bcd60e51b815260206004820152602a60248201527f5361666545524332303a204552433230206f7065726174696f6e20646964206e6044820152691bdd081cdd58d8d9595960b21b6064820152608490fd5b600080fd5b634e487b7160e01b600052604160045260246000fd5b6101709160609061030c565b845162461bcd60e51b815260206004820152601d60248201527f416464726573733a2063616c6c20746f206e6f6e2d636f6e74726163740000006044820152606490fd5b60405162461bcd60e51b815260206004820152600d60248201526c13585e08131a5b5a5d081a1a5d609a1b6044820152606490fd5b919082018092116102d457565b634e487b7160e01b600052601160045260246000fd5b90601f8019910116810190811067ffffffffffffffff82111761022c57604052565b90919015610318575090565b8151156103285750805190602001fd5b6040519062461bcd60e51b8252602060048301528181519182602483015260005b83811061036b5750508160006044809484010152601f80199101168101030190fd5b6020828201810151604487840101528593500161034956fea26469706673582212204a699775d29198a5f6ecda5e7c713dd3fc9ddfd8adcf335551e04424d1eb0cdb64736f6c634300081b0033",
  "devdoc": {
    "kind": "dev",
    "methods": {},
    "version": 1
  },
  "userdoc": {
    "kind": "user",
    "methods": {},
    "version": 1
  },
  "storageLayout": {
    "storage": [
      {
        "astId": 4777,
        "contract": "contracts/Faucet.sol:Faucet",
        "label": "max",
        "offset": 0,
        "slot": "0",
        "type": "t_uint256"
      },
      {
        "astId": 4783,
        "contract": "contracts/Faucet.sol:Faucet",
        "label": "withdrawals",
        "offset": 0,
        "slot": "1",
        "type": "t_mapping(t_address,t_mapping(t_address,t_uint256))"
      }
    ],
    "types": {
      "t_address": {
        "encoding": "inplace",
        "label": "address",
        "numberOfBytes": "20"
      },
      "t_mapping(t_address,t_mapping(t_address,t_uint256))": {
        "encoding": "mapping",
        "key": "t_address",
        "label": "mapping(address => mapping(address => uint256))",
        "numberOfBytes": "32",
        "value": "t_mapping(t_address,t_uint256)"
      },
      "t_mapping(t_address,t_uint256)": {
        "encoding": "mapping",
        "key": "t_address",
        "label": "mapping(address => uint256)",
        "numberOfBytes": "32",
        "value": "t_uint256"
      },
      "t_uint256": {
        "encoding": "inplace",
        "label": "uint256",
        "numberOfBytes": "32"
      }
    }
  }
}