{
  "address": "0xe7f1725E7734CE288F8367e1Bb143E90bb3F0512",
  "abi": [
    {
      "inputs": [
        {
          "components": [
            {
              "components": [
                {
                  "internalType": "uint256",
                  "name": "X",
                  "type": "uint256"
                },
                {
                  "internalType": "uint256",
                  "name": "Y",
                  "type": "uint256"
                }
              ],
              "internalType": "struct Pairing.G1Point",
              "name": "a",
              "type": "tuple"
            },
            {
              "components": [
                {
                  "internalType": "uint256[2]",
                  "name": "X",
                  "type": "uint256[2]"
                },
                {
                  "internalType": "uint256[2]",
                  "name": "Y",
                  "type": "uint256[2]"
                }
              ],
              "internalType": "struct Pairing.G2Point",
              "name": "b",
              "type": "tuple"
            },
            {
              "components": [
                {
                  "internalType": "uint256",
                  "name": "X",
                  "type": "uint256"
                },
                {
                  "internalType": "uint256",
                  "name": "Y",
                  "type": "uint256"
                }
              ],
              "internalType": "struct Pairing.G1Point",
              "name": "c",
              "type": "tuple"
            }
          ],
          "internalType": "struct Verifier.Proof",
          "name": "proof",
          "type": "tuple"
        },
        {
          "internalType": "uint256[1]",
          "name": "input",
          "type": "uint256[1]"
        }
      ],
      "name": "verifyTx",
      "outputs": [
        {
          "internalType": "bool",
          "name": "r",
          "type": "bool"
        }
      ],
      "stateMutability": "view",
      "type": "function"
    }
  ],
  "transactionHash": "0xafecb2507edd29b7378c4e48a9f7d72ca303ec9d286da2eb7d611f02085d402c",
  "args": [],
  "numDeployments": 1,
  "solcInputHash": "6babea74955d80334764346762de4648",
  "bytecode": "0x60808060405234601557610d7a908161001b8239f35b600080fdfe6080604052600436101561001257600080fd5b60003560e01c63f48d77291461002757600080fd5b346100cb57366003190161012081126100cb57610100136100cb5761004a6100e6565b61005336610151565b815260803660431901126100cb5761006961010b565b6100723661020a565b815261007d36610221565b6020820152602082015261009036610175565b60408201523661012312156100cb576100b56100c7916100af36610199565b906102e6565b60405190151581529081906020820190565b0390f35b600080fd5b634e487b7160e01b600052604160045260246000fd5b604051906060820182811067ffffffffffffffff82111761010657604052565b6100d0565b604051906040820182811067ffffffffffffffff82111761010657604052565b6040519190601f01601f1916820167ffffffffffffffff81118382101761010657604052565b60409060031901126100cb5761016561010b565b9060043582526024356020830152565b60409060c31901126100cb5761018961010b565b9060c435825260e4356020830152565b9060206101a58161012b565b928390610124116100cb57610104905b61012482106101c357505050565b813581529082019082016101b5565b91906101de604061012b565b928390604081019283116100cb57905b8282106101fa57505050565b81358152602091820191016101ee565b80606312156100cb5761021e9060446101d2565b90565b8060a312156100cb5761021e9060846101d2565b67ffffffffffffffff81116101065760051b60200190565b9061025f61025a83610235565b61012b565b8281528092610270601f1991610235565b0190602036910137565b634e487b7160e01b600052603260045260246000fd5b80511561029d5760200190565b61027a565b80516001101561029d5760400190565b80516002101561029d5760600190565b80516003101561029d5760800190565b805182101561029d5760209160051b010190565b906102f1604061012b565b60018152926020368186013760005b6001811015610324576001908060051b84015161031d82886102d2565b5201610300565b50926103319291506103a7565b61033a57600190565b600090565b634e487b7160e01b600052601160045260246000fd5b906001820180921161036357565b61033f565b906002820180921161036357565b906003820180921161036357565b906004820180921161036357565b906005820180921161036357565b156100cb57565b9190916103b2610602565b916103bd8251610355565b906103cf6080850192835151146103a0565b6103d761010b565b6000815260006020820152946000955b84518710156104625761045a60019161042b7f30644e72e131a029b85045b68181585d2833e84879b9709143e1f593f00000016104248b8a6102d2565b51106103a0565b610454610442875161043c8c610355565b906102d2565b5161044d8b8a6102d2565b5190610968565b906109b6565b9601956103e7565b6104c6959296506104c2945061047c610483929451610290565b51906109b6565b825192610494602082015192610a14565b906104a6604080860151920151610a14565b9160608501519360206104b98751610a14565b96015196610add565b1590565b6104cf57600090565b600190565b6020906104e08261012b565b91368337565b6104ee61010b565b9060406104fa8161012b565b8136823783526105098161012b565b903682376020830152565b6040519060a0820182811067ffffffffffffffff82111761010657604052606060808361053f61010b565b600081526000602082015281526105546104e6565b60208201526105616104e6565b604082015261056e6104e6565b838201520152565b6060906105828261012b565b6002815291601f19018260005b82811061059b57505050565b6020906105a661010b565b600081526000838201528282850101520161058f565b60a0906105c88261012b565b6004815291601f19018260005b8281106105e157505050565b6020906105ec61010b565b60008152600083820152828285010152016105d5565b61060a610514565b9061061361010b565b7f11a5980e609c37630c670a0c845536afe255296ca28208bd34d70d5e803b929381527ed953c4791bbe6ed7def55b4a1da32d0e0f831634399361a2a613ebbe169cbc6020820152825260406106688161012b565b7f08a5657198b77e7d2869fefe067450903fe41dc100c9a5871a2257769510951681527f0b7a4532d6f51a4300adb837b50fe7e4c82f145825aa6e8a14e644ad2cd18d8860208201526106ba8261012b565b7f228b725b25cbf01c3a2d7919cfd4d11ad7f0c29c1f65e655a2a9cb3ade83461d81527f05022685c9e031d131a223b9b818d886da315487b46ef4d354e1a1d858cb1f22602082015261070b61010b565b918252602082015260208401526107218161012b565b7f1e02d47ab469f8c0d0858b8b1eccf5063692d4b94840281d76335e4cacdeaab581527f17516b0ef2a2cf5fda98fbeb3a5f9340a1d119efd3931613f69d324778e9d02a60208201526107738261012b565b7f19d8fa6ee9797643c3fb66f78f550fdac0716dff0ad2b133e44bdb22e5e8a34181527f1c410b7b3bd0595e197b4afab7cee3a126230f05d2b4ae4ec2d826748bf2909160208201526107c461010b565b91825260208201528184015261082b6107dc8261012b565b917f2b0c7c3d06b71e721c13ae9f28eead277677540b84649a3ba15004aebfae521183527f23295b9323ebfd9934db3c805f70eb7f44a0bdba99f945c602faca4ec4e274bf602084015261012b565b7f2b4512480be0581fb8cfb630ac5fdb82461007d6313da08783f6a9de1a182d5e81527f1c05c0c9746e2fe65cbc87da94ac5ce3de2593c0e84f0d87edee752b6e8af5a3602082015261087c61010b565b91825260208201526060830152610965610894610576565b608084019081526109016108a661010b565b7f1d2698dd7b5d65259cc3f801e9f7caaef97d88ee312ce34b778dff264e0e0ad181527f241160b4f120fb8e4de500a98c6734f352e2b970d2f00e03edc59899dfa557b160208201528251906108fb82610290565b52610290565b5061090a61010b565b907f0106442a9261e4ca555f9d7c04f02c0093cd30357a1b0e230492c3a52a27b4f782527f1afb949e5c0ef683839ed2c7751611ac2d682b3196e4da41a95796d425fbe27f6020830152519061095f826102a2565b526102a2565b50565b919061097261010b565b600081526000602082015260808194606093602061098f8661012b565b92863685378051845201516020830152604082015260076107cf195a01fa156109b457565bfe5b60609092919260c06109c661010b565b91600083526000602084015260208396816109e1608061012b565b936080368637805185520151828401528051604084015201518482015260066107cf195a01fa80156109b457156100cb57565b610a1c61010b565b60008152600060208201525080511580610ad1575b610aba577f30644e72e131a029b85045b68181585d97816a916871ca8d3c208c16d87cfd4760208251920151067f30644e72e131a029b85045b68181585d97816a916871ca8d3c208c16d87cfd47037f30644e72e131a029b85045b68181585d97816a916871ca8d3c208c16d87cfd47811161036357610aaf61010b565b918252602082015290565b50610ac361010b565b600081526000602082015290565b50602081015115610a31565b97969394929195610aec6105bc565b95610af760a061012b565b6004815297608060005b818110610bb457505061021e999a610b1889610290565b52610b2288610290565b50610b2c886102a2565b52610b36876102a2565b50610b40876102b2565b52610b4a866102b2565b50610b54866102c2565b52610b5e856102c2565b50610b6886610290565b52610b7285610290565b50610b7c856102a2565b52610b86846102a2565b50610b90846102b2565b52610b9a836102b2565b50610ba4836102c2565b52610bae826102c2565b50610be2565b808b60208093610bc26104e6565b9201015201610b01565b9060068202918083046006149015171561036357565b908151610bf1825182146103a0565b610bfa81610bcc565b92610c048461024d565b9260005b838110610c4657505050506020918291610c206104d4565b93849260051b910160086107cf195a01fa80156109b457610c40906103a0565b51151590565b80610c53600192856102d2565b5151610c5e82610bcc565b90610c6b600092896102d2565b526020610c7883876102d2565b510151610c95610c8f610c8a85610bcc565b610355565b896102d2565b52610cab610ca383866102d2565b515160200190565b51610cc0610c8f610cbb85610bcc565b610368565b52610ccb82856102d2565b515151610ce2610c8f610cdd85610bcc565b610376565b52610cfb6020610cf284876102d2565b51015160200190565b51610d10610c8f610d0b85610bcc565b610384565b526020610d1d83866102d2565b510151905051610d3d610d37610d3284610bcc565b610392565b886102d2565b5201610c0856fea2646970667358221220153e79a2d2bb956db59c88301e6c88c223a5ac69d40248cc5ce2e6c4ec2b269b64736f6c634300081b0033",
  "devdoc": {
    "kind": "dev",
    "methods": {},
    "version": 1
  },
  "userdoc": {
    "kind": "user",
    "methods": {},
    "version": 1
  },
  "storageLayout": {
    "storage": [],
    "types": null
  }
}