{
  "address": "0xB7f8BC63BbcaD18155201308C8f3540b07f84F5e",
  "abi": [
    {
      "inputs": [
        {
          "internalType": "address",
          "name": "_token",
          "type": "address"
        },
        {
          "internalType": "contract Verifier",
          "name": "_ltvVerifier",
          "type": "address"
        }
      ],
      "stateMutability": "nonpayable",
      "type": "constructor"
    },
    {
      "inputs": [],
      "name": "CalldataMustHaveValidPayload",
      "type": "error"
    },
    {
      "inputs": [],
      "name": "CalldataOverOrUnderFlow",
      "type": "error"
    },
    {
      "inputs": [],
      "name": "CanNotPickMedianOfEmptyArray",
      "type": "error"
    },
    {
      "inputs": [],
      "name": "DataPackageTimestampMustNotBeZero",
      "type": "error"
    },
    {
      "inputs": [],
      "name": "DataPackageTimestampsMustBeEqual",
      "type": "error"
    },
    {
      "inputs": [],
      "name": "DuplicatePoolToken",
      "type": "error"
    },
    {
      "inputs": [],
      "name": "EachSignerMustProvideTheSameValue",
      "type": "error"
    },
    {
      "inputs": [],
      "name": "EmptyCalldataPointersArr",
      "type": "error"
    },
    {
      "inputs": [],
      "name": "GetDataServiceIdNotImplemented",
      "type": "error"
    },
    {
      "inputs": [],
      "name": "IncorrectUnsignedMetadataSize",
      "type": "error"
    },
    {
      "inputs": [
        {
          "internalType": "uint256",
          "name": "receivedSignersCount",
          "type": "uint256"
        },
        {
          "internalType": "uint256",
          "name": "requiredSignersCount",
          "type": "uint256"
        }
      ],
      "name": "InsufficientNumberOfUniqueSigners",
      "type": "error"
    },
    {
      "inputs": [],
      "name": "InvalidCalldataPointer",
      "type": "error"
    },
    {
      "inputs": [],
      "name": "LTVLowerThanMinimum",
      "type": "error"
    },
    {
      "inputs": [],
      "name": "NotEnoughBalance",
      "type": "error"
    },
    {
      "inputs": [],
      "name": "ProofVerificationfailed",
      "type": "error"
    },
    {
      "inputs": [],
      "name": "RedstonePayloadMustHaveAtLeastOneDataPackage",
      "type": "error"
    },
    {
      "inputs": [
        {
          "internalType": "address",
          "name": "receivedSigner",
          "type": "address"
        }
      ],
      "name": "SignerNotAuthorised",
      "type": "error"
    },
    {
      "inputs": [
        {
          "internalType": "uint256",
          "name": "receivedTimestampSeconds",
          "type": "uint256"
        },
        {
          "internalType": "uint256",
          "name": "blockTimestamp",
          "type": "uint256"
        }
      ],
      "name": "TimestampFromTooLongFuture",
      "type": "error"
    },
    {
      "inputs": [
        {
          "internalType": "uint256",
          "name": "receivedTimestampSeconds",
          "type": "uint256"
        },
        {
          "internalType": "uint256",
          "name": "blockTimestamp",
          "type": "uint256"
        }
      ],
      "name": "TimestampIsTooOld",
      "type": "error"
    },
    {
      "inputs": [],
      "name": "TokenNotAllowed",
      "type": "error"
    },
    {
      "anonymous": false,
      "inputs": [
        {
          "indexed": false,
          "internalType": "address",
          "name": "sender",
          "type": "address"
        },
        {
          "indexed": false,
          "internalType": "uint256",
          "name": "amountInDollars",
          "type": "uint256"
        },
        {
          "indexed": false,
          "internalType": "uint256",
          "name": "totalAmountAvailableForBorrowInDollars",
          "type": "uint256"
        },
        {
          "indexed": false,
          "internalType": "bool",
          "name": "userPresent",
          "type": "bool"
        },
        {
          "indexed": false,
          "internalType": "int256",
          "name": "userIndex",
          "type": "int256"
        },
        {
          "indexed": false,
          "internalType": "uint256",
          "name": "currentUserTokenBorrowedAmount",
          "type": "uint256"
        }
      ],
      "name": "Borrow",
      "type": "event"
    },
    {
      "anonymous": false,
      "inputs": [
        {
          "indexed": true,
          "internalType": "address",
          "name": "previousOwner",
          "type": "address"
        },
        {
          "indexed": true,
          "internalType": "address",
          "name": "newOwner",
          "type": "address"
        }
      ],
      "name": "OwnershipTransferred",
      "type": "event"
    },
    {
      "anonymous": false,
      "inputs": [
        {
          "indexed": false,
          "internalType": "address",
          "name": "sender",
          "type": "address"
        },
        {
          "indexed": false,
          "internalType": "int256",
          "name": "index",
          "type": "int256"
        },
        {
          "indexed": false,
          "internalType": "uint256",
          "name": "tokenAmountBorrowed",
          "type": "uint256"
        },
        {
          "indexed": false,
          "internalType": "uint256",
          "name": "totalTokenAmountToCollectFromUser",
          "type": "uint256"
        }
      ],
      "name": "PayDebt",
      "type": "event"
    },
    {
      "anonymous": false,
      "inputs": [
        {
          "indexed": false,
          "internalType": "address",
          "name": "sender",
          "type": "address"
        },
        {
          "indexed": false,
          "internalType": "uint256",
          "name": "currentUserTokenLentAmount",
          "type": "uint256"
        }
      ],
      "name": "Supply",
      "type": "event"
    },
    {
      "anonymous": false,
      "inputs": [
        {
          "indexed": false,
          "internalType": "address",
          "name": "sender",
          "type": "address"
        },
        {
          "indexed": false,
          "internalType": "uint256",
          "name": "amount",
          "type": "uint256"
        },
        {
          "indexed": false,
          "internalType": "uint256",
          "name": "tokenToWithdrawInDollars",
          "type": "uint256"
        },
        {
          "indexed": false,
          "internalType": "uint256",
          "name": "availableToWithdraw",
          "type": "uint256"
        },
        {
          "indexed": false,
          "internalType": "uint256",
          "name": "totalAmountLentInDollars",
          "type": "uint256"
        },
        {
          "indexed": false,
          "internalType": "uint256",
          "name": "zLTokenToRemove",
          "type": "uint256"
        }
      ],
      "name": "Withdraw",
      "type": "event"
    },
    {
      "inputs": [],
      "name": "DEFAULT_LTV",
      "outputs": [
        {
          "internalType": "uint256",
          "name": "",
          "type": "uint256"
        }
      ],
      "stateMutability": "view",
      "type": "function"
    },
    {
      "inputs": [
        {
          "internalType": "string",
          "name": "name",
          "type": "string"
        },
        {
          "internalType": "address",
          "name": "tokenAddress",
          "type": "address"
        },
        {
          "internalType": "uint256",
          "name": "minimumLTV",
          "type": "uint256"
        },
        {
          "internalType": "uint256",
          "name": "borrowStableRate",
          "type": "uint256"
        },
        {
          "internalType": "uint256",
          "name": "interestRate",
          "type": "uint256"
        }
      ],
      "name": "addPoolTokens",
      "outputs": [],
      "stateMutability": "nonpayable",
      "type": "function"
    },
    {
      "inputs": [
        {
          "internalType": "uint256[]",
          "name": "values",
          "type": "uint256[]"
        }
      ],
      "name": "aggregateValues",
      "outputs": [
        {
          "internalType": "uint256",
          "name": "",
          "type": "uint256"
        }
      ],
      "stateMutability": "view",
      "type": "function"
    },
    {
      "inputs": [
        {
          "internalType": "uint256",
          "name": "amount",
          "type": "uint256"
        },
        {
          "internalType": "address",
          "name": "tokenAddress",
          "type": "address"
        }
      ],
      "name": "borrow",
      "outputs": [],
      "stateMutability": "nonpayable",
      "type": "function"
    },
    {
      "inputs": [
        {
          "internalType": "uint256",
          "name": "",
          "type": "uint256"
        }
      ],
      "name": "borrowers",
      "outputs": [
        {
          "internalType": "address",
          "name": "",
          "type": "address"
        }
      ],
      "stateMutability": "view",
      "type": "function"
    },
    {
      "inputs": [],
      "name": "extractTimestampsAndAssertAllAreEqual",
      "outputs": [
        {
          "internalType": "uint256",
          "name": "extractedTimestamp",
          "type": "uint256"
        }
      ],
      "stateMutability": "pure",
      "type": "function"
    },
    {
      "inputs": [
        {
          "internalType": "uint256",
          "name": "amount",
          "type": "uint256"
        },
        {
          "internalType": "address",
          "name": "tokenAddress",
          "type": "address"
        }
      ],
      "name": "getAmountInDollars",
      "outputs": [
        {
          "internalType": "uint256",
          "name": "",
          "type": "uint256"
        }
      ],
      "stateMutability": "view",
      "type": "function"
    },
    {
      "inputs": [
        {
          "internalType": "address",
          "name": "signerAddress",
          "type": "address"
        }
      ],
      "name": "getAuthorisedSignerIndex",
      "outputs": [
        {
          "internalType": "uint8",
          "name": "",
          "type": "uint8"
        }
      ],
      "stateMutability": "view",
      "type": "function"
    },
    {
      "inputs": [],
      "name": "getBorrowersArray",
      "outputs": [
        {
          "internalType": "address[]",
          "name": "",
          "type": "address[]"
        }
      ],
      "stateMutability": "view",
      "type": "function"
    },
    {
      "inputs": [],
      "name": "getDataServiceId",
      "outputs": [
        {
          "internalType": "string",
          "name": "",
          "type": "string"
        }
      ],
      "stateMutability": "view",
      "type": "function"
    },
    {
      "inputs": [],
      "name": "getLendersArray",
      "outputs": [
        {
          "internalType": "address[]",
          "name": "",
          "type": "address[]"
        }
      ],
      "stateMutability": "view",
      "type": "function"
    },
    {
      "inputs": [
        {
          "internalType": "address",
          "name": "token",
          "type": "address"
        }
      ],
      "name": "getPoolToken",
      "outputs": [
        {
          "components": [
            {
              "internalType": "address",
              "name": "tokenAddress",
              "type": "address"
            },
            {
              "internalType": "uint256",
              "name": "minimumLTV",
              "type": "uint256"
            },
            {
              "internalType": "uint256",
              "name": "stableRate",
              "type": "uint256"
            },
            {
              "internalType": "uint256",
              "name": "interestRate",
              "type": "uint256"
            },
            {
              "internalType": "string",
              "name": "name",
              "type": "string"
            }
          ],
          "internalType": "struct zLendLibrary.Token",
          "name": "",
          "type": "tuple"
        }
      ],
      "stateMutability": "view",
      "type": "function"
    },
    {
      "inputs": [],
      "name": "getPoolTokens",
      "outputs": [
        {
          "components": [
            {
              "internalType": "address",
              "name": "tokenAddress",
              "type": "address"
            },
            {
              "internalType": "uint256",
              "name": "minimumLTV",
              "type": "uint256"
            },
            {
              "internalType": "uint256",
              "name": "stableRate",
              "type": "uint256"
            },
            {
              "internalType": "uint256",
              "name": "interestRate",
              "type": "uint256"
            },
            {
              "internalType": "string",
              "name": "name",
              "type": "string"
            }
          ],
          "internalType": "struct zLendLibrary.Token[]",
          "name": "",
          "type": "tuple[]"
        }
      ],
      "stateMutability": "view",
      "type": "function"
    },
    {
      "inputs": [
        {
          "internalType": "address",
          "name": "tokenAddress",
          "type": "address"
        }
      ],
      "name": "getPriceInUSDFromRedstone",
      "outputs": [
        {
          "internalType": "uint256",
          "name": "",
          "type": "uint256"
        }
      ],
      "stateMutability": "view",
      "type": "function"
    },
    {
      "inputs": [
        {
          "internalType": "string",
          "name": "feedId",
          "type": "string"
        }
      ],
      "name": "getPriceInUSDFromRedstone",
      "outputs": [
        {
          "internalType": "uint256",
          "name": "",
          "type": "uint256"
        }
      ],
      "stateMutability": "view",
      "type": "function"
    },
    {
      "inputs": [
        {
          "internalType": "address",
          "name": "user",
          "type": "address"
        }
      ],
      "name": "getRemainingCollateral",
      "outputs": [
        {
          "internalType": "uint256",
          "name": "",
          "type": "uint256"
        }
      ],
      "stateMutability": "view",
      "type": "function"
    },
    {
      "inputs": [
        {
          "internalType": "address",
          "name": "user",
          "type": "address"
        }
      ],
      "name": "getTokenAvailableToWithdraw",
      "outputs": [
        {
          "internalType": "uint256",
          "name": "",
          "type": "uint256"
        }
      ],
      "stateMutability": "view",
      "type": "function"
    },
    {
      "inputs": [
        {
          "internalType": "address",
          "name": "tokenAddress",
          "type": "address"
        }
      ],
      "name": "getTokenFrom",
      "outputs": [
        {
          "components": [
            {
              "internalType": "address",
              "name": "tokenAddress",
              "type": "address"
            },
            {
              "internalType": "uint256",
              "name": "minimumLTV",
              "type": "uint256"
            },
            {
              "internalType": "uint256",
              "name": "stableRate",
              "type": "uint256"
            },
            {
              "internalType": "uint256",
              "name": "interestRate",
              "type": "uint256"
            },
            {
              "internalType": "string",
              "name": "name",
              "type": "string"
            }
          ],
          "internalType": "struct zLendLibrary.Token",
          "name": "",
          "type": "tuple"
        }
      ],
      "stateMutability": "view",
      "type": "function"
    },
    {
      "inputs": [
        {
          "internalType": "address",
          "name": "user",
          "type": "address"
        }
      ],
      "name": "getTotalAmountBorrowedInDollars",
      "outputs": [
        {
          "internalType": "uint256",
          "name": "",
          "type": "uint256"
        }
      ],
      "stateMutability": "view",
      "type": "function"
    },
    {
      "inputs": [
        {
          "internalType": "address",
          "name": "user",
          "type": "address"
        }
      ],
      "name": "getTotalAmountLentInDollars",
      "outputs": [
        {
          "internalType": "uint256",
          "name": "",
          "type": "uint256"
        }
      ],
      "stateMutability": "view",
      "type": "function"
    },
    {
      "inputs": [
        {
          "internalType": "address",
          "name": "tokenAddress",
          "type": "address"
        }
      ],
      "name": "getTotalTokenBorrowed",
      "outputs": [
        {
          "internalType": "uint256",
          "name": "",
          "type": "uint256"
        }
      ],
      "stateMutability": "view",
      "type": "function"
    },
    {
      "inputs": [
        {
          "internalType": "address",
          "name": "tokenAddres",
          "type": "address"
        }
      ],
      "name": "getTotalTokenSupplied",
      "outputs": [
        {
          "internalType": "uint256",
          "name": "",
          "type": "uint256"
        }
      ],
      "stateMutability": "view",
      "type": "function"
    },
    {
      "inputs": [],
      "name": "getUniqueSignersThreshold",
      "outputs": [
        {
          "internalType": "uint8",
          "name": "",
          "type": "uint8"
        }
      ],
      "stateMutability": "view",
      "type": "function"
    },
    {
      "inputs": [
        {
          "internalType": "address",
          "name": "user",
          "type": "address"
        }
      ],
      "name": "getUserTotalAmountAvailableForBorrowInDollars",
      "outputs": [
        {
          "internalType": "uint256",
          "name": "",
          "type": "uint256"
        }
      ],
      "stateMutability": "view",
      "type": "function"
    },
    {
      "inputs": [
        {
          "internalType": "address",
          "name": "currentUser",
          "type": "address"
        },
        {
          "internalType": "address",
          "name": "tokenAddress",
          "type": "address"
        },
        {
          "internalType": "uint256",
          "name": "noOfTokenslentOrBorrowed",
          "type": "uint256"
        },
        {
          "internalType": "string",
          "name": "_tokensLentOrBorrowed",
          "type": "string"
        }
      ],
      "name": "hasLentOrBorrowedToken",
      "outputs": [
        {
          "internalType": "bool",
          "name": "",
          "type": "bool"
        }
      ],
      "stateMutability": "view",
      "type": "function"
    },
    {
      "inputs": [
        {
          "internalType": "address",
          "name": "tokenAddress",
          "type": "address"
        },
        {
          "internalType": "uint256",
          "name": "tokenBorrowed",
          "type": "uint256"
        }
      ],
      "name": "interest",
      "outputs": [
        {
          "internalType": "uint256",
          "name": "",
          "type": "uint256"
        }
      ],
      "stateMutability": "view",
      "type": "function"
    },
    {
      "inputs": [
        {
          "internalType": "address",
          "name": "tokenAddress",
          "type": "address"
        },
        {
          "internalType": "uint256",
          "name": "amount",
          "type": "uint256"
        }
      ],
      "name": "lend",
      "outputs": [],
      "stateMutability": "payable",
      "type": "function"
    },
    {
      "inputs": [
        {
          "internalType": "uint256",
          "name": "",
          "type": "uint256"
        }
      ],
      "name": "lenders",
      "outputs": [
        {
          "internalType": "address",
          "name": "",
          "type": "address"
        }
      ],
      "stateMutability": "view",
      "type": "function"
    },
    {
      "inputs": [],
      "name": "noOfTokensBorrowed",
      "outputs": [
        {
          "internalType": "uint256",
          "name": "",
          "type": "uint256"
        }
      ],
      "stateMutability": "view",
      "type": "function"
    },
    {
      "inputs": [],
      "name": "noOfTokensLent",
      "outputs": [
        {
          "internalType": "uint256",
          "name": "",
          "type": "uint256"
        }
      ],
      "stateMutability": "view",
      "type": "function"
    },
    {
      "inputs": [
        {
          "internalType": "address",
          "name": "tokenAddress",
          "type": "address"
        }
      ],
      "name": "oneTokenEqualsHowManyDollars",
      "outputs": [
        {
          "internalType": "uint256",
          "name": "",
          "type": "uint256"
        },
        {
          "internalType": "uint256",
          "name": "",
          "type": "uint256"
        }
      ],
      "stateMutability": "view",
      "type": "function"
    },
    {
      "inputs": [],
      "name": "owner",
      "outputs": [
        {
          "internalType": "address",
          "name": "",
          "type": "address"
        }
      ],
      "stateMutability": "view",
      "type": "function"
    },
    {
      "inputs": [
        {
          "internalType": "address",
          "name": "tokenAddress",
          "type": "address"
        },
        {
          "internalType": "uint256",
          "name": "amount",
          "type": "uint256"
        }
      ],
      "name": "payDebt",
      "outputs": [],
      "stateMutability": "nonpayable",
      "type": "function"
    },
    {
      "inputs": [
        {
          "internalType": "address",
          "name": "",
          "type": "address"
        }
      ],
      "name": "poolTokens",
      "outputs": [
        {
          "internalType": "address",
          "name": "tokenAddress",
          "type": "address"
        },
        {
          "internalType": "uint256",
          "name": "minimumLTV",
          "type": "uint256"
        },
        {
          "internalType": "uint256",
          "name": "stableRate",
          "type": "uint256"
        },
        {
          "internalType": "uint256",
          "name": "interestRate",
          "type": "uint256"
        },
        {
          "internalType": "string",
          "name": "name",
          "type": "string"
        }
      ],
      "stateMutability": "view",
      "type": "function"
    },
    {
      "inputs": [],
      "name": "poolTokensCount",
      "outputs": [
        {
          "internalType": "uint256",
          "name": "",
          "type": "uint256"
        }
      ],
      "stateMutability": "view",
      "type": "function"
    },
    {
      "inputs": [
        {
          "internalType": "uint256",
          "name": "",
          "type": "uint256"
        }
      ],
      "name": "poolTokensList",
      "outputs": [
        {
          "internalType": "address",
          "name": "tokenAddress",
          "type": "address"
        },
        {
          "internalType": "uint256",
          "name": "minimumLTV",
          "type": "uint256"
        },
        {
          "internalType": "uint256",
          "name": "stableRate",
          "type": "uint256"
        },
        {
          "internalType": "uint256",
          "name": "interestRate",
          "type": "uint256"
        },
        {
          "internalType": "string",
          "name": "name",
          "type": "string"
        }
      ],
      "stateMutability": "view",
      "type": "function"
    },
    {
      "inputs": [
        {
          "internalType": "address",
          "name": "",
          "type": "address"
        },
        {
          "internalType": "uint256",
          "name": "",
          "type": "uint256"
        }
      ],
      "name": "provenBoosters",
      "outputs": [
        {
          "internalType": "bool",
          "name": "",
          "type": "bool"
        }
      ],
      "stateMutability": "view",
      "type": "function"
    },
    {
      "inputs": [],
      "name": "renounceOwnership",
      "outputs": [],
      "stateMutability": "nonpayable",
      "type": "function"
    },
    {
      "inputs": [
        {
          "internalType": "address",
          "name": "",
          "type": "address"
        }
      ],
      "name": "tokenPriceFeed",
      "outputs": [
        {
          "internalType": "uint256",
          "name": "",
          "type": "uint256"
        }
      ],
      "stateMutability": "view",
      "type": "function"
    },
    {
      "inputs": [
        {
          "internalType": "address",
          "name": "",
          "type": "address"
        }
      ],
      "name": "tokenPriceFeedDec",
      "outputs": [
        {
          "internalType": "uint256",
          "name": "",
          "type": "uint256"
        }
      ],
      "stateMutability": "view",
      "type": "function"
    },
    {
      "inputs": [
        {
          "internalType": "uint256",
          "name": "",
          "type": "uint256"
        },
        {
          "internalType": "address",
          "name": "",
          "type": "address"
        }
      ],
      "name": "tokensBorrowed",
      "outputs": [
        {
          "internalType": "address",
          "name": "",
          "type": "address"
        }
      ],
      "stateMutability": "view",
      "type": "function"
    },
    {
      "inputs": [
        {
          "internalType": "address",
          "name": "",
          "type": "address"
        },
        {
          "internalType": "address",
          "name": "",
          "type": "address"
        }
      ],
      "name": "tokensBorrowedAmount",
      "outputs": [
        {
          "internalType": "uint256",
          "name": "",
          "type": "uint256"
        }
      ],
      "stateMutability": "view",
      "type": "function"
    },
    {
      "inputs": [
        {
          "internalType": "uint256",
          "name": "",
          "type": "uint256"
        },
        {
          "internalType": "address",
          "name": "",
          "type": "address"
        }
      ],
      "name": "tokensLent",
      "outputs": [
        {
          "internalType": "address",
          "name": "",
          "type": "address"
        }
      ],
      "stateMutability": "view",
      "type": "function"
    },
    {
      "inputs": [
        {
          "internalType": "address",
          "name": "",
          "type": "address"
        },
        {
          "internalType": "address",
          "name": "",
          "type": "address"
        }
      ],
      "name": "tokensLentAmount",
      "outputs": [
        {
          "internalType": "uint256",
          "name": "",
          "type": "uint256"
        }
      ],
      "stateMutability": "view",
      "type": "function"
    },
    {
      "inputs": [
        {
          "internalType": "address",
          "name": "newOwner",
          "type": "address"
        }
      ],
      "name": "transferOwnership",
      "outputs": [],
      "stateMutability": "nonpayable",
      "type": "function"
    },
    {
      "inputs": [
        {
          "internalType": "address",
          "name": "tokenAddress",
          "type": "address"
        },
        {
          "internalType": "uint256",
          "name": "usdPrice",
          "type": "uint256"
        },
        {
          "internalType": "uint256",
          "name": "decimal",
          "type": "uint256"
        }
      ],
      "name": "updateTokenPrice",
      "outputs": [],
      "stateMutability": "nonpayable",
      "type": "function"
    },
    {
      "inputs": [
        {
          "components": [
            {
              "components": [
                {
                  "internalType": "uint256",
                  "name": "X",
                  "type": "uint256"
                },
                {
                  "internalType": "uint256",
                  "name": "Y",
                  "type": "uint256"
                }
              ],
              "internalType": "struct Pairing.G1Point",
              "name": "a",
              "type": "tuple"
            },
            {
              "components": [
                {
                  "internalType": "uint256[2]",
                  "name": "X",
                  "type": "uint256[2]"
                },
                {
                  "internalType": "uint256[2]",
                  "name": "Y",
                  "type": "uint256[2]"
                }
              ],
              "internalType": "struct Pairing.G2Point",
              "name": "b",
              "type": "tuple"
            },
            {
              "components": [
                {
                  "internalType": "uint256",
                  "name": "X",
                  "type": "uint256"
                },
                {
                  "internalType": "uint256",
                  "name": "Y",
                  "type": "uint256"
                }
              ],
              "internalType": "struct Pairing.G1Point",
              "name": "c",
              "type": "tuple"
            }
          ],
          "internalType": "struct Verifier.Proof",
          "name": "proof",
          "type": "tuple"
        },
        {
          "internalType": "uint256[1]",
          "name": "inputs",
          "type": "uint256[1]"
        },
        {
          "internalType": "uint256",
          "name": "LTV",
          "type": "uint256"
        },
        {
          "internalType": "uint256[]",
          "name": "boosts",
          "type": "uint256[]"
        }
      ],
      "name": "updateUserLTV",
      "outputs": [
        {
          "internalType": "bool",
          "name": "",
          "type": "bool"
        }
      ],
      "stateMutability": "nonpayable",
      "type": "function"
    },
    {
      "inputs": [
        {
          "internalType": "address",
          "name": "",
          "type": "address"
        }
      ],
      "name": "usersLTV",
      "outputs": [
        {
          "internalType": "uint256",
          "name": "",
          "type": "uint256"
        }
      ],
      "stateMutability": "view",
      "type": "function"
    },
    {
      "inputs": [],
      "name": "usersLTVVerifier",
      "outputs": [
        {
          "internalType": "contract Verifier",
          "name": "",
          "type": "address"
        }
      ],
      "stateMutability": "view",
      "type": "function"
    },
    {
      "inputs": [
        {
          "internalType": "uint256",
          "name": "receivedTimestampMilliseconds",
          "type": "uint256"
        }
      ],
      "name": "validateTimestamp",
      "outputs": [],
      "stateMutability": "view",
      "type": "function"
    },
    {
      "inputs": [
        {
          "internalType": "address",
          "name": "tokenAddress",
          "type": "address"
        },
        {
          "internalType": "uint256",
          "name": "amount",
          "type": "uint256"
        }
      ],
      "name": "withdraw",
      "outputs": [],
      "stateMutability": "nonpayable",
      "type": "function"
    },
    {
      "inputs": [],
      "name": "zLToken",
      "outputs": [
        {
          "internalType": "contract IERC20",
          "name": "",
          "type": "address"
        }
      ],
      "stateMutability": "view",
      "type": "function"
    }
  ],
  "transactionHash": "0xe0339386d4991a77ba5d3c4fcde503ce13205c30e749b471776a0993c4661b2c",
  "args": [
    "0x9fE46736679d2D9a65F0992F2272dE9f3c7fa6e0",
    "0xe7f1725E7734CE288F8367e1Bb143E90bb3F0512"
  ],
  "numDeployments": 1,
  "solcInputHash": "6babea74955d80334764346762de4648",
  "bytecode": "0x6080346100eb57601f613f3738819003918201601f19168301916001600160401b038311848410176100f05780849260409485528339810103126100eb5780516001600160a01b03811691908290036100eb57602001516001600160a01b038116908190036100eb5760008054336001600160a01b0319821681178355604051949290916001600160a01b0316907f8be0079c531659141344cd1fd0a4f28419497f9722a3daafe3b4186f6b6457e09080a3600180556000601055600060115560018060a01b0319600f541617600f5560018060a01b03196004541617600455613e3090816101078239f35b600080fd5b634e487b7160e01b600052604160045260246000fdfe6080604052600436101561001257600080fd5b60003560e01c806306254c6a1461035257806311f4f5d31461034d5780631419f093146103485780631818dd0b1461034357806319e249981461033e5780631a51c128146103395780631b9307201461033457806327e8e1841461032f57806333a379411461032a578063350901a1146103255780633c9d5093146103205780633ce142f51461031b5780634b3fd148146103165780634fa9f5a414610311578063541d83381461030c57806355a547d5146103075780636352b5681461030257806365311920146102fd578063715018a6146102f857806372bac893146102f357806374fd0ce0146102ee5780637924d93f146102e95780637b9ec997146102e457806386636894146102df57806389c06568146102da5780638cd075af146102d55780638cf1806b146102d05780638da5cb5b146102cb578063908e3b371461025d578063929eea21146102c65780639878cbb3146102c1578063a2fb342d146102bc578063a7772b97146102b7578063a8b74152146102b2578063a9126169146102ad578063aac0bf96146102a8578063ab56ee66146102a3578063b24ebfcc1461029e578063b9f09bb814610299578063bc99249f14610294578063c274583a1461028f578063cd9274091461028a578063d1e5788614610285578063ddc8edf714610280578063e42dd4541461027b578063f2fde38b14610276578063f3fef3a314610271578063f50b2efe1461026c578063f90c492414610267578063fb24af7f14610262578063fc757b881461025d5763fdc8070e1461025857600080fd5b611e1c565b611203565b611df5565b611dd9565b611d5c565b611b55565b611a8a565b6119b6565b611968565b6118a4565b611766565b611712565b6116d8565b6116ba565b611680565b6115e9565b6115c6565b61156d565b61151e565b6114fb565b6112d0565b611296565b61123b565b6111da565b6111be565b61115f565b610fa5565b610e76565b610e53565b610df8565b610d5d565b610d23565b610cca565b610ca1565b610c7e565b610b98565b610b7a565b610b1f565b61079c565b61076e565b610742565b6106d6565b6106b8565b610660565b610644565b610621565b6105d3565b6103fd565b6103da565b6103b3565b610388565b600435906001600160a01b038216820361036d57565b600080fd5b602435906001600160a01b038216820361036d57565b3461036d57602036600319011261036d5760206103ab6103a6610357565b611ec2565b604051908152f35b3461036d57604036600319011261036d5760206103ab6103d1610357565b60243590611f59565b3461036d57602036600319011261036d5760206103ab6103f8610357565b611f76565b3461036d57604036600319011261036d577f8c07f92992fae74db437a5a951a80bb1f619f30e867aa450b0bf4ce082469f2c610437610357565b60243561044960026001541415612001565b600260015561045981151561204d565b61055d61053661047061046a612085565b33613175565b9261047e600085121561212d565b6105306104b8336104a18860018060a01b03166000526006602052604060002090565b9060018060a01b0316600052602052604060002090565b5480966104c6821515612163565b6104ed6104dc6104d68484611f59565b86611eb5565b30336001600160a01b0385166131bb565b6001600160a01b03811660009081526006602052604090206105109033906104a1565b61051b8582546121b0565b905561052633611f76565b1561056b57611f59565b90611eb5565b60408051338152602081019490945283019390935260608201929092529081906080820190565b0390a161056960018055565b005b6105c661059961058461057f6003546121a1565b610dbd565b905460039190911b1c6001600160a01b031690565b6105a289610dbd565b81546001600160a01b0393841660039290921b91821b9390911b1916919091179055565b6105ce6121bd565b611f59565b3461036d57604036600319011261036d576105ec610357565b6024359060018060a01b0316600052600c602052604060002090600052602052602060ff604060002054166040519015158152f35b3461036d57602036600319011261036d5760206103ab61063f610357565b6122ac565b3461036d57600036600319011261036d57602060405160328152f35b3461036d57604036600319011261036d5760206106af61067e610357565b610686610372565b6001600160a01b0391821660009081526005855260408082209290931681526020919091522090565b54604051908152f35b3461036d57600036600319011261036d576020600d54604051908152f35b3461036d57600036600319011261036d576004546040516001600160a01b039091168152602090f35b602060408183019282815284518094520192019060005b8181106107235750505090565b82516001600160a01b0316845260209384019390920191600101610716565b3461036d57600036600319011261036d5761076a61075e6120d9565b604051918291826106ff565b0390f35b3461036d57602036600319011261036d57602061079161078c610357565b612378565b60ff60405191168152f35b3461036d57604036600319011261036d576004356107b8610372565b906107c860026001541415612001565b60026001556107de6107d9836132ea565b6123b6565b6107e981151561204d565b336000908152600b602052604090205415610a07575b336000908152600b6020526040902061083690546001600160a01b0384166000908152600e602052604090206001015411156123ce565b61083f3361284d565b9061084a83826130e0565b90610857838311156123e6565b6040516370a0823160e01b8152306004820152936001600160a01b0381169190602086602481865afa8015610a02578261055d946108c5826108cc947f0949b4a746d1a22545195b29a808e43151bbcad9d829bef19841cf662a2b38e99b6000916109d3575b501015612430565b3390613331565b61091d6108e06108da612085565b3361336d565b92909384600014610952576108ff90846108f8612552565b9184613421565b6001600160a01b0316600090815260066020526040902033906104a1565b546040805133815260208101969096528501959095529015156060840152608083015260a082019290925290819060c0820190565b61095b33612471565b6001600160a01b038216600090815260066020526040902061097e9033906104a1565b556109ce816109af60115461099a61099582612543565b601155565b6104a133916000526008602052604060002090565b80546001600160a01b0319166001600160a01b03909216919091179055565b6108ff565b6109f5915060203d6020116109fb575b6109ed8183610a8b565b810190612421565b386108bd565b503d6109e3565b61227d565b336000908152600b60205260409020603290556107ff565b634e487b7160e01b600052604160045260246000fd5b604081019081106001600160401b03821117610a5057604052565b610a1f565b606081019081106001600160401b03821117610a5057604052565b60a081019081106001600160401b03821117610a5057604052565b90601f801991011681019081106001600160401b03821117610a5057604052565b60405190610abb60a083610a8b565b565b6001600160401b038111610a5057601f01601f191660200190565b81601f8201121561036d57803590610aef82610abd565b92610afd6040519485610a8b565b8284526020838301011161036d57816000926020809301838601378301015290565b3461036d57608036600319011261036d57610b38610357565b610b40610372565b90606435906044356001600160401b03831161036d57602093610b6a610b70943690600401610ad8565b92612590565b6040519015158152f35b3461036d57600036600319011261036d576020601154604051908152f35b3461036d57600036600319011261036d576000610bb36135b0565b610bc6610bbf8261363a565b61ffff1690565b908115610c6d57610bd78391611e61565b9160005b818110610bed57604051838152602090f35b9091610bf884613655565b9065ffffffffffff610c12610c0c87611e6f565b366121b0565b3516908115610c5c5780610c375750600191610c2e9195611eb5565b93929101610bdb565b80959103610c4b57600191610c2e91611eb5565b63d9d1f46560e01b60005260046000fd5b630336dc9d60e41b60005260046000fd5b632154bfcf60e21b60005260046000fd5b3461036d57602036600319011261036d5760206103ab610c9c610357565b6126f8565b3461036d57600036600319011261036d57600f546040516001600160a01b039091168152602090f35b3461036d57600036600319011261036d57610ce3613680565b600080546001600160a01b0319811682556001600160a01b03167f8be0079c531659141344cd1fd0a4f28419497f9722a3daafe3b4186f6b6457e08280a3005b3461036d57602036600319011261036d576001600160a01b03610d44610357565b16600052600b6020526020604060002054604051908152f35b3461036d57604036600319011261036d576020600435610d7b610372565b60009182526008835260408083206001600160a01b0392831684526020529091205b5416604051908152f35b634e487b7160e01b600052603260045260246000fd5b600354811015610dd857600360005260206000200190600090565b610da7565b600254811015610dd857600260005260206000200190600090565b3461036d57602036600319011261036d5760043560035481101561036d5760036000527fc2575a0e9e593c00f959f8c92f12db2869c3395a3b0502d05e2516446f71f85b01546040516001600160a01b039091168152602090f35b3461036d57602036600319011261036d5760206103ab610e71610357565b61284d565b3461036d57602036600319011261036d576004356001600160401b03811161036d576103ab610eb3610eae6020933690600401610ad8565b612289565b613204565b60005b838110610ecb5750506000910152565b8181015183820152602001610ebb565b90602091610ef481518092818552858086019101610eb8565b601f01601f1916010190565b9060a06080610f4293600180841b0381511684526020810151602085015260408101516040850152606081015160608501520151918160808201520190610edb565b90565b602081016020825282518091526040820191602060408360051b8301019401926000915b838310610f7857505050505090565b9091929394602080610f96600193603f198682030187528951610f00565b97019301930191939290610f69565b3461036d57600036600319011261036d57600d54610fc28161160c565b90610fd06040519283610a8b565b80825260208201600d6000527fd7b6990105719101dabeb77144f2a3385c8033acd3af97e9423a695e81ad1eb56000915b838310611016576040518061076a8782610f45565b600560206001926110268561273c565b815201920192019190611001565b600d54811015610dd857600d6000526005602060002091020190600090565b90600182811c92168015611083575b602083101461106d57565b634e487b7160e01b600052602260045260246000fd5b91607f1691611062565b90604051918260008254926110a184611053565b808452936001811690811561110d57506001146110c6575b50610abb92500383610a8b565b90506000929192526020600020906000915b8183106110f1575050906020610abb92820101386110b9565b60209193508060019154838589010152019101909184926110d8565b905060209250610abb94915060ff191682840152151560051b820101386110b9565b919260a093610f42969592600180871b031684526020840152604083015260608201528160808201520190610edb565b3461036d57602036600319011261036d57600435600d5481101561036d5761118690611034565b5060018060a01b0381541661076a6001830154926002810154906111b160046003830154920161108d565b916040519586958661112f565b3461036d57600036600319011261036d5761076a61075e612085565b3461036d57600036600319011261036d576000546040516001600160a01b039091168152602090f35b3461036d57602036600319011261036d5761076a611227611222610357565b6129bb565b604051918291602083526020830190610f00565b3461036d57602036600319011261036d5760043560025481101561036d5760026000527f405787fa12a823e0f2b7631cc41b3ba8828b3321ca811111fa75cd3aa3bb5ace01546040516001600160a01b039091168152602090f35b3461036d57602036600319011261036d576001600160a01b036112b7610357565b1660005260096020526020604060002054604051908152f35b604036600319011261036d576112e4610357565b602435906112f760026001541415612001565b600260015561130d611308826132ea565b612a02565b61131882151561204d565b6040516370a0823160e01b81523360048201526001600160a01b03821690602081602481855afa8015610a025784916000916114dc575b50106114cb576040516370a0823160e01b815233600482015291602083602481855afa918215610a0257846113cf7fadacf827efe383160192c092d8658471945c074229a9746679b5e2b74adff19196611414936113c66114329761055d996000916114ac575b5083336113c1612a40565b613726565b309033906131bb565b6113da6108da6120d9565b901561144b576113f4906113ec612a86565b908386613421565b600f5461140c9084906001600160a01b0316926130e0565b903390613331565b6001600160a01b0316600090815260056020526040902033906104a1565b5460408051338152602081019290925290918291820190565b50611455336124da565b80611476336104a18660018060a01b03166000526005602052604060002090565b556114a7836109af60105461149261148d82612543565b601055565b6104a133916000526007602052604060002090565b6113f4565b6114c5915060203d6020116109fb576109ed8183610a8b565b386113b6565b63569d45cf60e11b60005260046000fd5b6114f5915060203d6020116109fb576109ed8183610a8b565b3861134f565b3461036d57602036600319011261036d5760206103ab611519610357565b612aab565b3461036d57604036600319011261036d5760206106af61153c610357565b611544610372565b6001600160a01b0391821660009081526006855260408082209290931681526020919091522090565b3461036d57602036600319011261036d576001600160a01b0361158e610357565b16600052600e602052604060002060018060a01b0381541661076a6001830154926002810154906111b160046003830154920161108d565b3461036d57602036600319011261036d5760206103ab6115e4610357565b612b68565b3461036d57602036600319011261036d5760206103ab611607610357565b612c2e565b6001600160401b038111610a505760051b60200190565b9080601f8301121561036d57813561163a8161160c565b926116486040519485610a8b565b81845260208085019260051b82010192831161036d57602001905b8282106116705750505090565b8135815260209182019101611663565b3461036d57602036600319011261036d576004356001600160401b03811161036d576103ab6116b56020923690600401611623565b61395d565b3461036d57600036600319011261036d576020601054604051908152f35b3461036d57602036600319011261036d576001600160a01b036116f9610357565b16600052600a6020526020604060002054604051908152f35b3461036d57600036600319011261036d5761076a60408051906117358183610a8b565b601282527172656473746f6e652d6d61696e2d64656d6f60701b602083015251918291602083526020830190610edb565b3461036d57604036600319011261036d576020600435611784610372565b60009182526007835260408083206001600160a01b039283168452602052909120610d9d565b604090600319011261036d57604051906117c382610a35565b60043582526024356020830152565b60409060c319011261036d57604051906117eb82610a35565b60c435825260e4356020830152565b9190604080519361180b8286610a8b565b8491810192831161036d57905b82821061182457505050565b8135815260209182019101611818565b806063121561036d57610f429060446117fa565b8060a3121561036d57610f429060846117fa565b80610123121561036d57602060405191611877602084610a8b565b82906101241161036d57610104905b61012482106118955750505090565b81358152908201908201611886565b3461036d573660031901610160811261036d576101001361036d576040516118cb81610a55565b6118d4366117aa565b8152608036604319011261036d576040516118ee81610a35565b6118f736611834565b815261190236611848565b60208201526020820152611915366117d2565b60408201526119233661185c565b906101443590610124356001600160401b03831161036d5761076a93611950611956943690600401611623565b92612daa565b60405190151581529081906020820190565b3461036d57606036600319011261036d57611981610357565b60243560443591611990613680565b6001600160a01b0316600090815260096020908152604080832093909355600a90522055005b3461036d5760a036600319011261036d576004356001600160401b03811161036d576119e6903690600401610ad8565b6119ee610372565b9060643590604435608435611a01613680565b6001600160a01b038581166000908152600e602052604090205416611a795761056994611a7493611a6f92611a34610aac565b6001600160a01b0384168152968795602087015260408601526060850152608084015260018060a01b0316600052600e602052604060002090565b612ee6565b612ffd565b636df29da560e11b60005260046000fd5b3461036d57602036600319011261036d57611aa3610357565b611aab613680565b6001600160a01b03811615611b0157600080546001600160a01b039283166001600160a01b03198216811783559216907f8be0079c531659141344cd1fd0a4f28419497f9722a3daafe3b4186f6b6457e09080a3005b60405162461bcd60e51b815260206004820152602660248201527f4f776e61626c653a206e6577206f776e657220697320746865207a65726f206160448201526564647265737360d01b6064820152608490fd5b3461036d57604036600319011261036d57611b6e610357565b602435611b8060026001541415612001565b6002600155611b9081151561204d565b611ba76000611ba061046a6120d9565b121561212d565b611bb182826130e0565b90611bbb336126f8565b92611be2611bda611bcb83611ec2565b611bd484612c2e565b906121b0565b831115613051565b611bee84841115613094565b611bf881836130e0565b600f546040516370a0823160e01b81523360048201526001600160a01b0390911695906020816024818a5afa938415610a02577fb7ee00edafdb5db3a1b52a5789a6b562eb48268842d113dbfe860b6f86e5f59597611cdc95611c9293600091611d3d575b50808611611d2b575050600f54611c7e9085906001600160a01b03166113c6565b61141486336001600160a01b038416613331565b611c9d8582546121b0565b9055611ca833612aab565b6040805133815260208101969096528501959095526060840152608083019390935260a082019290925290819060c0820190565b0390a1611ce833612aab565b15611cf7575b61056960018055565b611d1e611d10610584611d0b6002546121a1565b610ddd565b6105a2611d0b61046a6120d9565b611d26612228565b611cee565b611d3891309033906131bb565b611c7e565b611d56915060203d6020116109fb576109ed8183610a8b565b38611c5d565b3461036d57602036600319011261036d576103e860043504804210600014611dae57428103818111611da957603c10611d9157005b63b6b0916d60e01b6000526004524260245260446000fd5b611e4b565b804203428111611da95760b410611dc157005b630321d0b560e01b6000526004524260245260446000fd5b3461036d57600036600319011261036d57602060405160018152f35b3461036d57604036600319011261036d5760206103ab600435611e16610372565b906130e0565b3461036d57602036600319011261036d576040611e3f611e3a610357565b613120565b82519182526020820152f35b634e487b7160e01b600052601160045260246000fd5b9060028201809211611da957565b9060688201809211611da957565b9060208201809211611da957565b90600d8201809211611da957565b9060418201809211611da957565b604e019081604e11611da957565b91908201809211611da957565b60025460009181611ed257505090565b9091926000935b83851015611f3f576001600160a01b0383811660009081526005602090815260408083207f405787fa12a823e0f2b7631cc41b3ba8828b3321ca811111fa75cd3aa3bb5ace8a0154909416835292905220548101908110611da957600190940193611ed9565b9350915050565b81810292918115918404141715611da957565b6064916040611f6a611f72936129bb565b015190611f46565b0490565b601154600091825b828110611f8b5750505090565b60008181526008602090815260408083206001600160a01b0386811685529252909120541680611fbf575b50600101611f7e565b60008181526006602090815260408083206001600160a01b03871684529091529020919491611ff091905b546130e0565b8101809111611da957926001611fb6565b1561200857565b60405162461bcd60e51b815260206004820152601f60248201527f5265656e7472616e637947756172643a207265656e7472616e742063616c6c006044820152606490fd5b1561205457565b60405162461bcd60e51b81526020600482015260096024820152680416d6f756e744c54360bc1b6044820152606490fd5b604051906003548083528260208101600360005260206000209260005b8181106120b7575050610abb92500383610a8b565b84546001600160a01b03168352600194850194879450602090930192016120a2565b604051906002548083528260208101600260005260206000209260005b81811061210b575050610abb92500383610a8b565b84546001600160a01b03168352600194850194879450602090930192016120f6565b1561213457565b60405162461bcd60e51b815260206004820152600760248201526624ac22b93937b960c91b6044820152606490fd5b1561216a57565b60405162461bcd60e51b815260206004820152600f60248201526e4e6f426f72726f7742616c616e636560881b6044820152606490fd5b600019810191908211611da957565b91908203918211611da957565b600354801561221257600354600019820191600091831015610dd8576003918290527fc2575a0e9e593c00f959f8c92f12db2869c3395a3b0502d05e2516446f71f85a0180546001600160a01b031916905555565b634e487b7160e01b600052603160045260246000fd5b600254801561221257600254600019820191600091831015610dd8576002918290527f405787fa12a823e0f2b7631cc41b3ba8828b3321ca811111fa75cd3aa3bb5acd0180546001600160a01b031916905555565b6040513d6000823e3d90fd5b60208151910151906020811061229d575090565b6000199060200360031b1b1690565b6040516395d89b4160e01b815290600090829060049082906001600160a01b03165afa908115610a02576000916122eb575b50610eb3610f4291612289565b903d8082843e6122fb8184610a8b565b820191602081840312612370578051906001600160401b038211612374570182601f820112156123705780519161233183610abd565b9361233f6040519586610a8b565b8385526020848401011161236d575091612366610eb392610f429460208085019101610eb8565b91506122de565b80fd5b5080fd5b8280fd5b6001600160a01b0316730c39486f770b26f5527bbbf942726537986cd7eb81036123a25750600090565b6303b1166f60e61b60005260045260246000fd5b156123bd57565b63514e24c360e11b60005260046000fd5b156123d557565b63020c91fb60e61b60005260046000fd5b156123ed57565b60405162461bcd60e51b815260206004820152600c60248201526b139bdd115b9bdd59da1554d160a21b6044820152606490fd5b9081602091031261036d575190565b1561243757565b60405162461bcd60e51b815260206004820152601260248201527124b739bab33334b1b4b2b73a102a37b5b2b760711b6044820152606490fd5b60035490600160401b821015610a505760018201600355600354821015610dd85760036000527fc2575a0e9e593c00f959f8c92f12db2869c3395a3b0502d05e2516446f71f85b90910180546001600160a01b0319166001600160a01b03909216919091179055565b60025490600160401b821015610a505760018201600255600254821015610dd85760026000527f405787fa12a823e0f2b7631cc41b3ba8828b3321ca811111fa75cd3aa3bb5ace90910180546001600160a01b0319166001600160a01b03909216919091179055565b6000198114611da95760010190565b60405190612561604083610a8b565b6009825268626f72726f7765727360b81b6020830152565b9061258c60209282815194859201610eb8565b0190565b9290916125a0575b505050600090565b60405160208101906125c4816125b68486612579565b03601f198101835282610a8b565b519020604051691d1bdad95b9cd3195b9d60b21b60208201908152906125ed81602a81016125b6565b5190200361265c57506010549160005b83811061261157505050505b388080612598565b61263961262c836104a1846000526007602052604060002090565b546001600160a01b031690565b6001600160a01b03848116911614612653576001016125fd565b50505050600190565b604051612671816125b6602082018095612579565b5190206040516d1d1bdad95b9cd09bdc9c9bddd95960921b602082019081529061269e81602e81016125b6565b519020146126ae575b5050612609565b6011549160005b8381106126c35750506126a7565b6126de61262c836104a1846000526008602052604060002090565b6001600160a01b03848116911614612653576001016126b5565b61270181611f76565b90811561272d5761271190612b68565b905b808210612726578103908111611da95790565b5050600090565b61273690612aab565b90612713565b9060405161274981610a70565b82546001600160a01b031681526001830154602082015260028301546040820152600383015460608201529182906080906127869060040161108d565b910152565b6040519061279a606083610a8b565b603f82527f656e74546f6b656e4c656e74416d6f756e74496e446f6c6c61723a20256420006040837f63757272656e74546f6b656e4c656e74416d6f756e743a2025642c206375727260208201520152565b604051906127fb606083610a8b565b603a82527f6b656e4c656e74416d6f756e74496e446f6c6c61723a202564200000000000006040837f617661696c61626c65496e446f6c6c61723a2025642c2063757272656e74546f60208201520152565b9060008080600d54905b8181106128df57506000905b808210612877575050610f429293506121b0565b90926128d760019161053061289461288e88611034565b5061273c565b8051611e16906128c8908c906104a1906001600160a01b03165b6001600160a01b0316600090815260066020526040902090565b5491516001600160a01b031690565b930190612863565b8061299561298b61298461297d8a61295861294961294361293461290761288e60019c611034565b80519095906104a1906001600160a01b03165b6001600160a01b0316600090815260056020526040902090565b5493516001600160a01b031690565b836130e0565b809261295361278b565b6136d8565b6001600160a01b038c166000908152600b602052604090205461299b57603290611f46565b6064900490565b8096611eb5565b80956129536127ec565b01612857565b6001600160a01b038c166000908152600b602052604090205b5490611f46565b606060806040516129cb81610a70565b600081526000602082015260006040820152600083820152015260018060a01b0316600052600e602052610f42604060002061273c565b15612a0957565b60405162461bcd60e51b815260206004820152600f60248201526e151bdad95b939bdd105b1b1bddd959608a1b6044820152606490fd5b60405190612a4f606083610a8b565b6022825261095960f21b6040837f736e64723a2025732c20616d6f756e743a202564202c2062616c616e63653a2060208201520152565b60405190612a95604083610a8b565b60078252666c656e6465727360c81b6020830152565b601054600091825b828110612ac05750505090565b60008181526007602090815260408083206001600160a01b03868116855292529091205416612af2575b600101612ab3565b92612b59612b30836104a1612b15826104a18a6000526007602052604060002090565b546001600160a01b0316600090815260056020526040902090565b54612b49846104a1886000526007602052604060002090565b546001600160a01b0316906130e0565b8101809111611da95792612aea565b601054600091825b828110612b7d5750505090565b612b95826104a1836000526007602052604060002090565b546001600160a01b031680612bae575b50600101612b70565b600191946064612c03612bde84611fea886104a1612c0a9860018060a01b03166000526005602052604060002090565b6001600160a01b0387166000908152600b6020526040902054612c1157603290611f46565b0490611eb5565b9390612ba5565b6001600160a01b0387166000908152600b602052604090206129b4565b60035460009181612c3e57505090565b9091926000935b83851015611f3f576001600160a01b0383811660009081526006602090815260408083207fc2575a0e9e593c00f959f8c92f12db2869c3395a3b0502d05e2516446f71f85b8a0154909416835292905220548101908110611da957600190940193612c45565b9081602091031261036d5751801515810361036d5790565b906000905b60028210612cd557505050565b6020806001928551815201930191019091612cc8565b6101009093929193612d496040610120830196612d1384825160208091805184520151910152565b612d35602080830151612d298588018251612cc3565b01516080860190612cc3565b0151805160c08401526020015160e0830152565b016000905b60018210612d5b57505050565b6020806001928551815201930191019091612d4e565b15612d7857565b63a25ff6d360e01b60005260046000fd5b805115610dd85760200190565b8051821015610dd85760209160051b010190565b60045493949360009392612de1926020926001600160a01b03169060405180958194829363f48d772960e01b845260048401612ceb565b03915afa8015610a0257612dfd91600091612e65575b50612d71565b336000908152600b602052604090205560005b8351811015612e6057336000908152600c6020526040902060019190612e5a90612e4d90612e3e8489612d96565b51600052602052604060002090565b805460ff19166001179055565b01612e10565b509150565b612e87915060203d602011612e8d575b612e7f8183610a8b565b810190612cab565b38612df7565b503d612e75565b601f8211612ea157505050565b6000526020600020906020601f840160051c83019310612edc575b601f0160051c01905b818110612ed0575050565b60008155600101612ec5565b9091508190612ebc565b815181546001600160a01b0319166001600160a01b0391909116178155909190608090600490602085015160018201556040850151600282015560608501516003820155019201519182516001600160401b038111610a5057612f5381612f4d8454611053565b84612e94565b6020601f8211600114612f94578190612f85939495600092612f89575b50508160011b916000199060031b1c19161790565b9055565b015190503880612f70565b601f19821690612fa984600052602060002090565b9160005b818110612fe557509583600195969710612fcc575b505050811b019055565b015160001960f88460031b161c19169055388080612fc2565b9192602060018192868b015181550194019201612fad565b600d5490600160401b821015610a505760018201600d55600d54821015610dd857600d600052610abb916005027fd7b6990105719101dabeb77144f2a3385c8033acd3af97e9423a695e81ad1eb501612ee6565b1561305857565b60405162461bcd60e51b8152602060048201526014602482015273082dadeeadce888e0e6e8c89cdee88adcdeeaced60631b6044820152606490fd5b1561309b57565b60405162461bcd60e51b815260206004820152601c60248201527f617661696c61626c65546f57697468647261774e6f74456e6f756768000000006044820152606490fd5b906130ed6130f391613120565b92611f46565b90604d8111611da957600a0a90811561310a570490565b634e487b7160e01b600052601260045260246000fd5b6001600160a01b03811660008181526009602052604090205492918315613163575b50600052600a60205260406000205491821561315c579190565b9150601290565b61316e9193506122ac565b9138613142565b60005b82518110156131b2576001600160a01b036131938285612d96565b51166001600160a01b038316146131ac57600101613178565b91505090565b50505060001990565b6040516323b872dd60e01b60208201526001600160a01b039283166024820152929091166044830152606480830193909352918152610abb916131ff608483610a8b565b61382c565b6040908151906132148383610a8b565b6001825260208201601f198401368237825115610dd857526132368151613a34565b6132408251613a34565b61324a8351613a66565b9260005b815181101561327e57600190613262613a12565b61326c8288612d96565b526132778187612d96565b500161324e565b5090919361328a6135b0565b926132a061329a610bbf8661363a565b94611e61565b908251936000925b8684106132cc57505050505050506132c8916132c391613cad565b612d89565b5190565b6132df816105306001938b878e88613af9565b9386865201926132a8565b6001600160a01b039081166000818152600e602052604090205490911615159081613313575090565b6000818152600e60205260409020546001600160a01b031614919050565b60405163a9059cbb60e01b60208201526001600160a01b03929092166024830152604480830193909352918152610abb916131ff606483610a8b565b9190918251613382575b506000915060001990565b60005b83518110156133c2576001600160a01b036133a08286612d96565b51166001600160a01b038316146133b957600101613385565b92505060019190565b505090508038613377565b604051906133dc604083610a8b565b600e82526d1d1bdad95b9cd09bdc9c9bddd95960921b6020830152565b60405190613408604083610a8b565b600a8252691d1bdad95b9cd3195b9d60b21b6020830152565b919092604051602081019061343a816125b68486612579565b519020604051666c656e6465727360c81b602082019081529061346081602781016125b6565b519020036134f1575061058461347591610ddd565b60105461348b6134836133f9565b828585612590565b156134bf57506001600160a01b039091166000908152600560205260409020612f85916134b7916104a1565b918254611eb5565b8261291a6134ee946109af856104a1866134de61148d6104a199612543565b6000526007602052604060002090565b55565b604051613506816125b6602082018095612579565b51902060405168626f72726f7765727360b81b602082019081529061352e81602981016125b6565b5190201461353b57505050565b61058461354791610dbd565b6011546135556134836133cd565b1561358157506001600160a01b039091166000908152600660205260409020612f85916134b7916104a1565b826128ae6134ee946109af856104a1866135a06109956104a199612543565b6000526008602052604060002090565b6602ed57011e0000601f19360135166602ed57011e00000361362957366029116136185762ffffff6028193601351660038101809111611da95760098101809111611da957366135ff82611e61565b116136075790565b63c30a7bd760e01b60005260046000fd5b632bcb7bc560e11b60005260046000fd5b6373bb264f60e11b60005260046000fd5b60208101808211611da9573610613618573603601f19013590565b61365e90613901565b60200180602011611da95761367291611f46565b604e8101809111611da95790565b6000546001600160a01b0316330361369457565b606460405162461bcd60e51b815260206004820152602060248201527f4f776e61626c653a2063616c6c6572206973206e6f7420746865206f776e65726044820152fd5b6137219061370892610abb9460405194859363ca47c4eb60e01b6020860152606060248601526084850190610edb565b916044840152606483015203601f198101835282610a8b565b613942565b61372191610abb9461375694604051958694637c7a8d8f60e11b60208701526080602487015260a4860190610edb565b6001600160a01b0390931660448501526064840152608483015203601f198101835282610a8b565b6103e890048042106000146137b957428103818111611da957603c106137a15750565b63b6b0916d60e01b6000526004524260245260446000fd5b804203428111611da95760b410611dc15750565b156137d457565b60405162461bcd60e51b815260206004820152602a60248201527f5361666545524332303a204552433230206f7065726174696f6e20646964206e6044820152691bdd081cdd58d8d9595960b21b6064820152608490fd5b6040805192916001600160a01b0316906138468185610a8b565b602084527f5361666545524332303a206c6f772d6c6576656c2063616c6c206661696c65646020850152813b156138be575060008281928260206138999796519301915af1613893613ab0565b90613d29565b8051806138a4575050565b816020806138b993610abb9501019101612cab565b6137cd565b5162461bcd60e51b815260206004820152601d60248201527f416464726573733a2063616c6c20746f206e6f6e2d636f6e74726163740000006044820152606490fd5b60418101808211611da9576061820110611da957360390606019820191368311611da9576063190191808311611da9573562ffffff16913563ffffffff1690565b600080916020815191016a636f6e736f6c652e6c6f675afa50565b805115613a0157805160208083019160051b83010190805b8281106139cd5750505061398a815160011c90565b81516001166139c457610f42916139b7826139b06139aa6139be956121a1565b84612d96565b5192612d96565b5190611eb5565b60011c90565b6132c891612d96565b815b8181106139df5750602001613975565b602090825181518082106139f6575b5050016139cf565b8452815238806139ee565b639e198af960e01b60005260046000fd5b60408051909190613a238382610a8b565b6001815291601f1901366020840137565b90613a3e8261160c565b613a4b6040519182610a8b565b8281528092613a5c601f199161160c565b0190602036910137565b90613a708261160c565b613a7d6040519182610a8b565b8281528092613a8e601f199161160c565b019060005b828110613a9f57505050565b806060602080938501015201613a93565b3d15613adb573d90613ac182610abd565b91613acf6040519384610a8b565b82523d6000602084013e565b606090565b9060405191818352602082840101604052602083013790565b90613b2e9492613b3494613b84613b7e61078c87613b6f65ffffffffffff613b39613b2384613901565b9d909e8f908f611e7d565b90611f46565b611e8b565b6020613b6582613b60610c0c82613b5b613b55610c0c8c611e6f565b9a611e99565b611eb5565b613ae0565b012092351661377e565b613b7889611e99565b90613d6d565b60ff1690565b926000935b888510613bb15750505050505050610f4291613ba7613bac92611e7d565b611f46565b611ea7565b919497939690929598613bc588838c613da9565b95909260005b8b51811015613c9957613bde818d612d96565b518514613bed57600101613bcb565b9099919a98966001939c98969450613c058289612d96565b516001871b81161580613c86575b613c28575b5050505b01939291959495613b89565b613c7d91613c3f613c398589612d96565b51612543565b613c498589612d96565b52613c71613c57858b612d96565b51613c6b613c65878b612d96565b516121a1565b90612d96565b5284871b179188612d96565b52388080613c18565b5084613c928488612d96565b5110613c13565b509890999795506001919a96949250613c1c565b9190613cb98351613a34565b9060005b8451811015613d22576001613cd28284612d96565b5110613cff5780613cee613ce860019388612d96565b5161395d565b613cf88286612d96565b5201613cbd565b613d0891612d96565b51632b13aef560e01b600052600452600160245260446000fd5b5090925050565b90919015613d35575090565b815115613d455750805190602001fd5b60405162461bcd60e51b815260206004820152908190613d69906024830190610edb565b0390fd5b60806000916020809436036040519283526040810135851a82840152803560408401520135606082015282805260015afa15610a025760005190565b90604e820192838311611da9576001019081600111611da95760208101809111611da957613dd691611f46565b0190604e820110611da957604d199036030190368211611da957602082359201359056fea2646970667358221220553351e573b44c696337c1f5700e6fec75f33579e94668a4775ce8619d35d01b64736f6c634300081b0033",
  "devdoc": {
    "kind": "dev",
    "methods": {
      "aggregateValues(uint256[])": {
        "details": "This function may be overridden by the child consumer contract. It should aggregate values from different signers to a single uint value. By default, it calculates the median value",
        "params": {
          "values": "An array of uint256 values from different signers"
        },
        "returns": {
          "_0": "Result of the aggregation in the form of a single number"
        }
      },
      "getDataServiceId()": {
        "details": "This function must be implemented by the child consumer contract. It should return dataServiceId which DataServiceWrapper will use if not provided explicitly . If not overridden, value will always have to be provided explicitly in DataServiceWrapper.",
        "returns": {
          "_0": "dataServiceId being consumed by contract"
        }
      },
      "getUniqueSignersThreshold()": {
        "details": "This function should be overridden by the child consumer contract.",
        "returns": {
          "_0": "The minimum required value of unique authorised signers"
        }
      },
      "owner()": {
        "details": "Returns the address of the current owner."
      },
      "renounceOwnership()": {
        "details": "Leaves the contract without owner. It will not be possible to call `onlyOwner` functions anymore. Can only be called by the current owner. NOTE: Renouncing ownership will leave the contract without an owner, thereby removing any functionality that is only available to the owner."
      },
      "transferOwnership(address)": {
        "details": "Transfers ownership of the contract to a new account (`newOwner`). Can only be called by the current owner."
      },
      "validateTimestamp(uint256)": {
        "details": "This function may be overridden by the child consumer contract. It should validate the timestamp against the current time (block.timestamp) It should revert with a helpful message if the timestamp is not valid",
        "params": {
          "receivedTimestampMilliseconds": "Timestamp extracted from calldata"
        }
      }
    },
    "version": 1
  },
  "userdoc": {
    "kind": "user",
    "methods": {},
    "version": 1
  },
  "storageLayout": {
    "storage": [
      {
        "astId": 110,
        "contract": "contracts/zLend.sol:zLend",
        "label": "_owner",
        "offset": 0,
        "slot": "0",
        "type": "t_address"
      },
      {
        "astId": 226,
        "contract": "contracts/zLend.sol:zLend",
        "label": "_status",
        "offset": 0,
        "slot": "1",
        "type": "t_uint256"
      },
      {
        "astId": 6437,
        "contract": "contracts/zLend.sol:zLend",
        "label": "lenders",
        "offset": 0,
        "slot": "2",
        "type": "t_array(t_address)dyn_storage"
      },
      {
        "astId": 6440,
        "contract": "contracts/zLend.sol:zLend",
        "label": "borrowers",
        "offset": 0,
        "slot": "3",
        "type": "t_array(t_address)dyn_storage"
      },
      {
        "astId": 6443,
        "contract": "contracts/zLend.sol:zLend",
        "label": "usersLTVVerifier",
        "offset": 0,
        "slot": "4",
        "type": "t_contract(Verifier)6362"
      },
      {
        "astId": 6452,
        "contract": "contracts/zLend.sol:zLend",
        "label": "tokensLentAmount",
        "offset": 0,
        "slot": "5",
        "type": "t_mapping(t_address,t_mapping(t_address,t_uint256))"
      },
      {
        "astId": 6458,
        "contract": "contracts/zLend.sol:zLend",
        "label": "tokensBorrowedAmount",
        "offset": 0,
        "slot": "6",
        "type": "t_mapping(t_address,t_mapping(t_address,t_uint256))"
      },
      {
        "astId": 6464,
        "contract": "contracts/zLend.sol:zLend",
        "label": "tokensLent",
        "offset": 0,
        "slot": "7",
        "type": "t_mapping(t_uint256,t_mapping(t_address,t_address))"
      },
      {
        "astId": 6470,
        "contract": "contracts/zLend.sol:zLend",
        "label": "tokensBorrowed",
        "offset": 0,
        "slot": "8",
        "type": "t_mapping(t_uint256,t_mapping(t_address,t_address))"
      },
      {
        "astId": 6474,
        "contract": "contracts/zLend.sol:zLend",
        "label": "tokenPriceFeed",
        "offset": 0,
        "slot": "9",
        "type": "t_mapping(t_address,t_uint256)"
      },
      {
        "astId": 6478,
        "contract": "contracts/zLend.sol:zLend",
        "label": "tokenPriceFeedDec",
        "offset": 0,
        "slot": "10",
        "type": "t_mapping(t_address,t_uint256)"
      },
      {
        "astId": 6482,
        "contract": "contracts/zLend.sol:zLend",
        "label": "usersLTV",
        "offset": 0,
        "slot": "11",
        "type": "t_mapping(t_address,t_uint256)"
      },
      {
        "astId": 6488,
        "contract": "contracts/zLend.sol:zLend",
        "label": "provenBoosters",
        "offset": 0,
        "slot": "12",
        "type": "t_mapping(t_address,t_mapping(t_uint256,t_bool))"
      },
      {
        "astId": 6536,
        "contract": "contracts/zLend.sol:zLend",
        "label": "poolTokensList",
        "offset": 0,
        "slot": "13",
        "type": "t_array(t_struct(Token)6404_storage)dyn_storage"
      },
      {
        "astId": 6541,
        "contract": "contracts/zLend.sol:zLend",
        "label": "poolTokens",
        "offset": 0,
        "slot": "14",
        "type": "t_mapping(t_address,t_struct(Token)6404_storage)"
      },
      {
        "astId": 6544,
        "contract": "contracts/zLend.sol:zLend",
        "label": "zLToken",
        "offset": 0,
        "slot": "15",
        "type": "t_contract(IERC20)919"
      },
      {
        "astId": 6547,
        "contract": "contracts/zLend.sol:zLend",
        "label": "noOfTokensLent",
        "offset": 0,
        "slot": "16",
        "type": "t_uint256"
      },
      {
        "astId": 6550,
        "contract": "contracts/zLend.sol:zLend",
        "label": "noOfTokensBorrowed",
        "offset": 0,
        "slot": "17",
        "type": "t_uint256"
      }
    ],
    "types": {
      "t_address": {
        "encoding": "inplace",
        "label": "address",
        "numberOfBytes": "20"
      },
      "t_array(t_address)dyn_storage": {
        "base": "t_address",
        "encoding": "dynamic_array",
        "label": "address[]",
        "numberOfBytes": "32"
      },
      "t_array(t_struct(Token)6404_storage)dyn_storage": {
        "base": "t_struct(Token)6404_storage",
        "encoding": "dynamic_array",
        "label": "struct zLendLibrary.Token[]",
        "numberOfBytes": "32"
      },
      "t_bool": {
        "encoding": "inplace",
        "label": "bool",
        "numberOfBytes": "1"
      },
      "t_contract(IERC20)919": {
        "encoding": "inplace",
        "label": "contract IERC20",
        "numberOfBytes": "20"
      },
      "t_contract(Verifier)6362": {
        "encoding": "inplace",
        "label": "contract Verifier",
        "numberOfBytes": "20"
      },
      "t_mapping(t_address,t_address)": {
        "encoding": "mapping",
        "key": "t_address",
        "label": "mapping(address => address)",
        "numberOfBytes": "32",
        "value": "t_address"
      },
      "t_mapping(t_address,t_mapping(t_address,t_uint256))": {
        "encoding": "mapping",
        "key": "t_address",
        "label": "mapping(address => mapping(address => uint256))",
        "numberOfBytes": "32",
        "value": "t_mapping(t_address,t_uint256)"
      },
      "t_mapping(t_address,t_mapping(t_uint256,t_bool))": {
        "encoding": "mapping",
        "key": "t_address",
        "label": "mapping(address => mapping(uint256 => bool))",
        "numberOfBytes": "32",
        "value": "t_mapping(t_uint256,t_bool)"
      },
      "t_mapping(t_address,t_struct(Token)6404_storage)": {
        "encoding": "mapping",
        "key": "t_address",
        "label": "mapping(address => struct zLendLibrary.Token)",
        "numberOfBytes": "32",
        "value": "t_struct(Token)6404_storage"
      },
      "t_mapping(t_address,t_uint256)": {
        "encoding": "mapping",
        "key": "t_address",
        "label": "mapping(address => uint256)",
        "numberOfBytes": "32",
        "value": "t_uint256"
      },
      "t_mapping(t_uint256,t_bool)": {
        "encoding": "mapping",
        "key": "t_uint256",
        "label": "mapping(uint256 => bool)",
        "numberOfBytes": "32",
        "value": "t_bool"
      },
      "t_mapping(t_uint256,t_mapping(t_address,t_address))": {
        "encoding": "mapping",
        "key": "t_uint256",
        "label": "mapping(uint256 => mapping(address => address))",
        "numberOfBytes": "32",
        "value": "t_mapping(t_address,t_address)"
      },
      "t_string_storage": {
        "encoding": "bytes",
        "label": "string",
        "numberOfBytes": "32"
      },
      "t_struct(Token)6404_storage": {
        "encoding": "inplace",
        "label": "struct zLendLibrary.Token",
        "members": [
          {
            "astId": 6395,
            "contract": "contracts/zLend.sol:zLend",
            "label": "tokenAddress",
            "offset": 0,
            "slot": "0",
            "type": "t_address"
          },
          {
            "astId": 6397,
            "contract": "contracts/zLend.sol:zLend",
            "label": "minimumLTV",
            "offset": 0,
            "slot": "1",
            "type": "t_uint256"
          },
          {
            "astId": 6399,
            "contract": "contracts/zLend.sol:zLend",
            "label": "stableRate",
            "offset": 0,
            "slot": "2",
            "type": "t_uint256"
          },
          {
            "astId": 6401,
            "contract": "contracts/zLend.sol:zLend",
            "label": "interestRate",
            "offset": 0,
            "slot": "3",
            "type": "t_uint256"
          },
          {
            "astId": 6403,
            "contract": "contracts/zLend.sol:zLend",
            "label": "name",
            "offset": 0,
            "slot": "4",
            "type": "t_string_storage"
          }
        ],
        "numberOfBytes": "160"
      },
      "t_uint256": {
        "encoding": "inplace",
        "label": "uint256",
        "numberOfBytes": "32"
      }
    }
  }
}